:020000040800F2
:10000000284B002011830108257101082771010880
:1000100000000000000000000000000000000000E0
:10002000000000000000000000000000297101082D
:1000300000000000000000002B7101082D71010874
:100040000D8501080F850108118501081385010838
:1000500015850108357101081785010869710108C6
:1000600019850108457101084D7101081B850108BA
:100070001D8501081F8501082185010823850108C8
:100080002585010827850108298501082B85010898
:100090002D8501082F850108318501083385010868
:1000A00035850108557101085F7101083785010820
:1000B000398501083B8501083D8501083F85010818
:1000C000002242608260C24B0360C16002614261F3
:1000D0008261C261026242628262C2620263426300
:1000E0008263C263026442648264C26402654265E0
:1000F0008265C265026642668266C26602674267C0
:100100008267C26780214250010084310A604A60E0
:100110007047F8B58AB0070011A80078002800D110
:1001200053E11C00684602800D00280001F0ECFF3E
:100130000600280001F0AEFF04A9009A12B20A805E
:100140004C808880CE80280002F0ACF80600029730
:10015000109C280002F03AF9002800D104E1401E6A
:1001600000D1F7E0401E0BD0401E072800D823E145
:10017000083800D112E1401E012800D81CE124E11A
:1001800011A80078FF2800D0DAE0280002F04AF831
:10019000002806D1230004AA3100029800F0B2FA28
:1001A00013E1290006A801F0E9FF069B1BB206A88F
:1001B000694642880A800421425E6946C5888D816D
:1001C0000020205EA18841180FB2BB4222DA9A18A3
:1001D00017B2B8421EDA6D4667886F80009D2D14F5
:1001E000E788ED196F46FD80009D2DB2019F3F14F9
:1001F000BD420FDA009D2DB2039F3FB2ED196F464D
:10020000BD80009D2D14019F3FB2BD4202DA98428D
:1002100005DA05E0002300200021002219E0030098
:10022000009800B20225655FA84200DA280015B2E6
:100230000FB2BD4200DA1100C91A009A12B2039D32
:100240002DB252196588E788ED19AA4200DD2A000F
:10025000121A08AD2B806880A980EA800420285EED
:1002600001286DDB0620285E012869DB0220205E64
:100270000221695E884211DA091A0422A25E002373
:10028000E35E06AF3B807880BA80F980FF20009063
:1002900006AB04AA3100029800F09CF80020205E12
:1002A0000021695E884212DA0621695E2A88121AE4
:1002B0000223EB5E06AF38807B80BA80F980FF2096
:1002C000009006AB04AA3100029800F083F808AB56
:1002D00004AA3100029800F015FA2088A18840187D
:1002E00000B22988AA8889180AB2824210DA062246
:1002F000AA5E0223EF5E06AB19805F80401A9880E9
:10030000DA80FF20009004AA3100029800F062F821
:100310006088E188401800B26988EA8889180AB2C2
:10032000824252DA0422A25E0023E35E06AC2380FE
:100330006180A280401AE080FF20009006AB03E0BD
:1003400011A800780090230004AA3100029800F060
:1003500041F83AE011A800780090230004AA310087
:10036000029800F0A3FA30E0280001F05BFF0028BB
:1003700007D0E1487D220100683102F07BF800BF20
:1003800000BF0020019011A800780090230004AA6B
:10039000310002980468E468A04716E0280001F0E4
:1003A000BBFF11A909780191009404AB0200310050
:1003B000029800F0BDFD08E0CF488D2201006831B1
:1003C000D03002F057F800BF00BF0BB0F0BD000006
:1003D0009C710108F0B58DB005000F0014001E00DF
:1003E00001A82100082202F071F803A831000822B8
:1003F00002F06CF801A802F0BFF8210003A802F097
:10040000CFF803AE0220305E0021715E01AA042302
:10041000D25E03005A43891889007C183188019AFA
:1004200012B28918318001A94988401870800420CF
:10043000305E00900620305E0590B048006801688C
:10044000896A8847AE4909880022B25E0223F35EBA
:100450004B43D218520087180598484340003E1875
:10046000E8682100026892689047002812D1E86885
:100470000099890009910A46210003681B69984781
:10048000009840000C900A9508943C0012A805784A
:10049000059699E0210012A800783A0005960EE032
:1004A00012A80078964B1B88009C1B1B5B00D2187F
:1004B00001AB04241B5F009C1B1B9B00C918059B00
:1004C0009A4200D317E1009B5B00D3189A42E9D20D
:1004D00012AC2070089308988242E1D20B68180E83
:1004E00067D0FF2854D012AC247860430400000A7F
:1004F0002018401C0004000E0690FF20069C001BE4
:10050000C0B207901088050AF8242C40C508FC26C4
:100510002E40C500DFB2069878432F067F0F2F4389
:10052000FFB2079D7D4345191F043F0E069878438F
:10053000B7093743079E7E4380191E02360E069B7D
:100540007343260064093443079E66439B199CB29B
:100550001B041B0EE3185B1C1B041B0E1C02F82360
:100560001B02234084B20004000E2018401C00042B
:10057000000EC400FC20C00020401843ABB22C0485
:10058000240E1B195B1C1B041B0EDB0818430FE019
:1005900012AC2478FF2CA6D1180AF82424020440B7
:1005A0005809FC25ED00054025431806C00E2843D8
:1005B0001080921C091D8EE712A80578504800880B
:1005C0000099401A400024180598844200D392E014
:1005D0000A98C06801684969884707004848008848
:1005E00040002018059988420DD2089801A90422DC
:1005F000895E8900401808900A98C068099A08998D
:1006000003681B6998470C9820188442D6D212A917
:100610000D700B900B988442CED23968080E67D0CB
:10062000FF2854D012AA127850430200000A101872
:10063000401C0004000E0690FF20069A801AC0B2EB
:1006400007902088030AF8221A40C308FC251D40A1
:10065000C300CEB2069870431E06760F1E43F6B254
:10066000079B7343C3180E04360E06987043AE09F9
:100670002E43079D754340190D022D0E06996943BF
:10068000150052092A43079D554349198AB20904A6
:10069000090E5118491C0904090E0A02F821090221
:1006A000114082B20004000E1018401C0004000E1D
:1006B000C200FC20C0001040084399B21A04120E78
:1006C0008918491C0904090EC90808430FE012AA39
:1006D0001278FF2AA6D1080AF8221202024048091D
:1006E000FC23DB00034013430806C00E18432080A0
:1006F000A41C3F1D8EE78BE27CF7000848410020D8
:1007000042410020F8B58AB004000E0015001F0019
:1007100001A82900082201F0D9FE03A83900082207
:1007200001F0D4FE01A801F027FF290003A801F081
:1007300037FF03AD0220285E0021695E01AA042371
:10074000D25E03005A438918890077182988019AD4
:1007500012B28918298001A94988401868800420AC
:10076000285E009006202E5E4E4800680168896A67
:1007700088474D4909880022AA5E0223EB5E4B435D
:10078000D2185200801805904E4371004618E06858
:100790003900026892689047002810D1E0680099FB
:1007A000890007910A46390003681B699847009839
:1007B0004000099008943D00059C059642E005988C
:1007C0000596F8231B021AE03D683F1D2E0A1E40C5
:1007D0006C09144034432D06ED0E25430580801C22
:1007E0008842F1D330490988009A891A4900401893
:1007F00001A90422895E009A891A89007F18059947
:10080000884247D20099490041188842EAD2FC2226
:10081000D200E5E739683F1D0B0A6A46128B1A4081
:100820004B096E46768B1E4016430906C90E3143AE
:100830002180A41C8442EDD31B4800880099401AF3
:10084000400024180598844224D20898C0680168A2
:100850004969884707001448008840002018059916
:1008600088420BD201A80421405E80002D18089810
:10087000C068079A290003681B69984709982018DF
:100880008442D9D2FC21C9006A465183F821090269
:100890001183CFE7034800680168C96A88470BB035
:1008A000F0BD00004841002042410020F8B58CB066
:1008B00004000E0015001F0068462900082201F000
:1008C00005FE03A83900082201F000FE684601F089
:1008D00053FE290003A801F063FE03AD0220285E49
:1008E0000021695E6A460423D25E03005A438918D8
:1008F0004A00511877182988009A12B2891829805D
:1009000069464988401868800420285E02900620C5
:100910002E5EC34800680168896A8847C149098812
:100920000022AA5E0223EB5E4B43D21852008018CD
:1009300006904E43720086180298081A0590684681
:100940000421405E0299401A41000D18E068390008
:10095000026892689047002800D18EE012A80078C3
:10096000FF2823D10698069612E0BC7824020C409A
:100970007E78F600164026433C78E408264306803D
:10098000801CFF1C9842F0D30599490040187F193C
:10099000069A904200D33BE1029A52008318984293
:1009A000F2D2FC22D200F8210902EBE738000699C6
:1009B0000995069650E0089A0B881C0AF8252540F0
:1009C000DC08FC262640DC00037812AF3F787B432E
:1009D00027067F0F2743FFB214007C431B1944787E
:1009E00012AF3F787C43B709374316007E43A41902
:1009F000867812AF3F787E432F006D093D436A43EE
:100A0000B21895B21204120EAA18521C1204120E39
:100A10001502F82212022A40A5B22404240E2C1931
:100A2000641C2404240EE500FC24E4002C40144340
:100A30009AB21B041B0ED218521C1204120ED208BA
:100A400014430C80891CC01C079A9142B3D3059AA9
:100A500052008918099A8018069A914200D3D7E06B
:100A6000029A52008A189142F1D2FF2312AC2478E4
:100A70001B1BDBB208930792E6E7E06802994A0085
:100A8000511809910A46390003681B69984712A852
:100A90000078FF2807943DD13D00069C069611E0A2
:100AA000BB781B020B407E78F60016401E433B7855
:100AB000DB081E432680A41CFF1C8442F0D305984B
:100AC000400024180698844200D3A1E00798C0682B
:100AD000016849698847070052480088400020188B
:100AE000069988420CD268460421405E41000818ED
:100AF0002D180798C068099A290003681B69984750
:100B00000298400020188442D9D2FC22D200F82159
:100B10000902D2E70A97069C06964EE008982188BB
:100B20000A0AF8231340CA08FC251540CA00397880
:100B300012AE367871431606760F1643F6B20200EF
:100B4000724389187A7812AE36787243AE092E4312
:100B5000050075435219BD7812AE367875431E00F4
:100B60005B0933435843281883B20004000E181859
:100B7000401C0004000E0302F8200002184093B24B
:100B80001204120E9A18521C1204120ED300FC22E8
:100B9000D2001A40024388B20904090E4018401CD2
:100BA0000004000EC00802432280A41CFF1C0B9806
:100BB0008442B3D3059840002418069EB44227D23D
:100BC0000798C06801684969884707001548008888
:100BD00040002018B0420ED20A9869460422895E6D
:100BE0004A00511840180A900798C068099A0A9953
:100BF00003681B6998470298400020188442D9D2A4
:100C0000FF2112AA1278891AC9B208910B90CEE777
:100C1000034800680168C96A88470DB0F0BD00004C
:100C20004841002042410020F8B58CB0129E3400AB
:100C300000D177E11F0014000D00059068462100E7
:100C4000082201F043FC03A83900082201F03EFC11
:100C5000684601F091FC210003A801F0A1FC03AC5F
:100C60000220205E0021615E6A460423D25E0300FA
:100C70005A43891849006D182188009A12B28918C0
:100C8000218069464988401860800420205E0290D7
:100C90000620205E0690A44800680168896A88479B
:100CA000A24909880022A25E0223E35E4B43D218C8
:100CB0005200841806984843400027180598C068D9
:100CC0002900026892689047002800D185E0FF2E35
:100CD0006BD0FF20801B02994900099112A90E7068
:100CE000069754E020882988CA00D2B2079B5A434D
:100CF000C300DBB2059E7343D218CE08FC233340F9
:100D0000079E7343C708FC263E40059F7E439B1900
:100D10000E0AF8213140079E7143000AF82606406A
:100D200038464643881981B20004000E0818401C5A
:100D30000004000E0102F8200002084099B21B04D2
:100D40001B0EC918491C0904090ECB00FC21C9005F
:100D50001940014390B21204120E8018401C000486
:100D6000000EC00801432180A41CAD1C08988442D9
:100D7000B8D305986D490988029A891A4900641800
:100D800069460422895E029A891A49006D180699FB
:100D90008C4200D3C1E0099961188C42EAD212AAB0
:100DA0001278079205900891E0E7029E0697069850
:100DB000844200D3B1E05C48006873002A0021003F
:100DC00007687F6BB8475948008840002418684678
:100DD0000421405E40002D18E9E7FF2E00D185E098
:100DE000FF20801B08900598C0680299490009916E
:100DF0000A46290003681B6998470A9512A80670DD
:100E000006974CE023883588E800C0B2079948432C
:100E1000D900C9B2089A51434218E908FC20084099
:100E200007994843DF08FC213940089F794341185E
:100E30002D0AF8202840079D68431B0AF8251D400D
:100E40003B465D43401983B20004000E1818401C55
:100E50000004000E0302F820000218408BB20904BF
:100E6000090E5918491C0904090ECB00FC21C900C0
:100E70001940014390B21204120E8018401C000465
:100E8000000EC00801432180A41CB61C0B988442AC
:100E9000B8D3264800880299401A400024180698C2
:100EA00084423AD20598C0680168496988470600BB
:100EB0001E48008840002018069988420DD20A98E2
:100EC00069460422895E490040180A900598C06866
:100ED000099A0A9903681B6998470998201884425F
:100EE000D7D212A9097807910B90CFE7029E0697F7
:100EF00010E00598C0687300220029000768FF68A9
:100F0000B8470A4800884000241868460421405E1B
:100F100040002D1806988442EBD30348006801680E
:100F2000C96A88470DB0F0BD484100204241002009
:100F3000FEB5089C099D56781778002F26D0022F01
:100F400001D046D351E0002E05D0022E0BD007D39E
:100F5000032E0BD014E00195009400F021FA44E038
:100F60008026805904E08030406801E0803080684D
:100F700000283AD0019500940468A468A04734E0A2
:100F80001B481C4A01006831CE2328E0002E05D002
:100F9000022E0BD007D3032E0BD014E00195009442
:100FA00000F02CF821E08026805904E08030406871
:100FB00001E080308068002817D001950094046813
:100FC000E468A04711E00A480B4A01006831DB23BE
:100FD00005E00748AB22920001006831E9239B003D
:100FE000C01801F047FA00BF00BF03B0F0BD000019
:100FF0007CF700088A020000A7020000F4B58CB05C
:1010000006000D001C00108800280AD0DE48DF4AC8
:1010100001006831FD239B00C01801F02BFA00BFCE
:1010200000BF129F0695039601A82100082201F037
:101030004DFA04A83900082201F048FA01A801F08D
:101040009BFA210004A801F0ABFA04AD0220285E4F
:1010500006990022AA5E01AB04241B5F04006343CF
:10106000D2188C182988019A12B28918298001A9EE
:101070004988401868800420285E009006202E5E73
:10108000C34800680168896A8847C2490988002204
:10109000AA5E0223EB5E4B43D218520085184E43E2
:1010A00070002E180398C068139F21000268926890
:1010B0009047002808D00398C0680C99091D026861
:1010C00092689047002821D10398C0680C99091DA7
:1010D000026892689047002809D1AB48AE4A0100E7
:1010E0006831AE4BC01801F0C5F900BF00BF0398CE
:1010F000C068009A210003681B6998470098400067
:101100000B9006942C003D0007969DE020002900DE
:1011100007960DE013AA17789E4A1288009BD21AF0
:101120005200891801AA0423D25E009BD21A8018AB
:10113000079A914200D325E1009A52008A18914201
:10114000EAD213AB1F700892089A9142E2D20C9A2D
:10115000121D03789B00D258160E69D0FF2E56D070
:101160000D882C0AF8232340EF08FC243C40ED00B6
:10117000069513AD2D786E433500360AAD196D1CFA
:101180002D042D0EFF26761BF6B20396D7B26F43C1
:10119000BC46069F3E06760F3E43F6B2039F7E4353
:1011A0006746BE1917043F0E6F43BC462700A409CB
:1011B0003C43039F7C4367463C191202120E6A436C
:1011C0001D005B092B43039D6B43D21893B212049D
:1011D000120E9A18521C1204120E1302F822120256
:1011E0001A40A3B22404240E1B195B1C1B041B0E03
:1011F000DC00FC23DB0023401343B2B23404240E92
:101200001219521C1204120ED20813430FE013AB32
:101210001B78FF2BA4D1130AF82424021C40530985
:10122000FC25ED001D4025431206D30E2B430B80F9
:10123000891C401C88E713A90D78040055480088D4
:101240000099401A400024180798844200D399E07E
:101250000398C06801684969884707004D480088BD
:1012600040002018079988420CD2069801A9042250
:10127000895E401806900398C068009A0699036832
:101280001B6998470B9822189442D7D213A805706F
:10129000200039000A920A9A9042CCD20C9A121D70
:1012A0000B789B00D258160E69D0FF2E56D00588B9
:1012B0002C0AF8232340EF08FC243C40ED0009955C
:1012C00013AD2D786E433500360AAD196D1C2D0413
:1012D0002D0EFF26761BF6B20896D7B26F43BC469A
:1012E000099F3E06760F3E43F6B2089F7E4367464F
:1012F000BE1917043F0E6F43BC462700A4093C43A8
:10130000089F7C4367463C191202120E6A431D0077
:101310005B092B43089D6B43D21893B21204120E43
:101320009A18521C1204120E1302F82212021A40CA
:10133000A3B22404240E1B195B1C1B041B0EDC002F
:10134000FC23DB0023401343B2B23404240E1219F1
:10135000521C1204120ED20813430FE013AB1B7879
:10136000FF2BA4D1130AF82424021C405309FC25A6
:10137000ED001D4025431206D30E2B430380801C35
:10138000491C88E744E400007CF70008B202000032
:101390004841002042410020FB02000044040000BC
:1013A000F4B58CB006000C001F00108802280AD08B
:1013B0008E48CF229200010068318D4BC01801F099
:1013C00059F800BF00BF139D280000D1C4E1099463
:1013D000049668463900082201F078F802A81299AC
:1013E000082201F073F8684601F0C6F8390002A837
:1013F00001F0D6F802AE0220305E09990022B25EFA
:101400006B4604241B5F04006343D2188F18318895
:10141000009A12B289183180694649884018708054
:101420000420345E0620305E0690CC4800680168D7
:10143000896A8847CA4909880022B25E0223F35E9E
:101440004B43D218520080180590069A4A43510027
:1014500046180498C06839000268926890470028CE
:1014600000D19AE00498C0680C99091D026892683E
:101470009047002800D190E0FF2D6DD0FF20411B48
:10148000C9B2089560000A9038000694059A05963E
:1014900057E011880C9B1B1D047864001B5BDC006B
:1014A000E4B2089D6C43CD00EDB2049E754364190F
:1014B000DE08FC253540089E7543CF08FC263E40DB
:1014C000049F7E43AD191E0AF8233340089E7343E0
:1014D000090AF8260E4039464E4399198BB2090481
:1014E000090E5918491C0904090E0B02F8210902BA
:1014F0001940ABB22D042D0E5B195B1C1B041B0E97
:10150000DD00FC23DB002B400B43A1B22404240E9E
:101510000919491C0904090EC9080B431380921CC0
:10152000401C07998A42B4D304998D4B1B88069CB2
:101530001B1B5B00D2186B4604241B5F069C1B1B05
:10154000C018059B9A4200D301E10A9BD3189A4226
:10155000EBD204910793E4E70598059613E0131D79
:101560003D786D005B5B03807F1C801C8842F6D356
:101570000C927B490988091B4900401869460422DE
:10158000895E091B7F180599884200D3DFE061005E
:1015900041188842EDD20C9AE8E70498C0680C998B
:1015A000091D026892689047002809D10F486D4ACA
:1015B000010068316C4BC01800F05CFF00BF00BF39
:1015C0000498C06801680B6961000A91FF2D00D181
:1015D00084E0220039009847FF20401BC0B20790EA
:1015E000089509970694059C059654E07CF7000839
:1015F000A404000020880C99091D32785200895AF1
:10160000CA00D2B2089B5A43C300DBB2079D6B43AA
:10161000D218CD08FC232B40089D6B43C708FC253E
:101620003D40079F7D435B190D0AF8212940089D25
:101630006943000AF825054038464543481981B2F8
:101640000004000E0818401C0004000E0102F820DF
:101650000002084099B21B041B0EC918491C09045A
:10166000090ECB00FC21C9001940014390B21204BD
:10167000120E8018401C0004000EC0080143218097
:10168000A41C761C0B988442B4D335480088069974
:10169000401A400024180598844258D20498C06823
:1016A00001684969884706002D48008840002018D5
:1016B000059988420CD2099869460422895E40182F
:1016C00009900498C068069A099903681B699847AD
:1016D0000A9820188442D8D20B90D3E72200390010
:1016E00098473D000694059C05960FE00A1D3B783F
:1016F0005B00D25A22807F1CA41C8442F6D30C913A
:10170000174800880699401A40002418059884421A
:101710001DD20498C06801684969884707001048CD
:10172000008840002018059988420AD268460421A2
:10173000405E2D180498C068069A290003681B694A
:1017400098470A9820188442DAD20C99D5E70348C2
:1017500000680168C96A88470DB0F0BD48410020A3
:10176000424100208703000044040000F8B584B023
:101770001D001B0624D00423CB5E012B20DB062397
:10178000CB5E012B1CDB1700060002A8082200F02C
:101790009DFE02A800F0F0FEAC4C20680168896A4A
:1017A0008847EDB20195009702AB06490A8801000F
:1017B000300035686D6AA84720680168C96A8847A3
:1017C00005B0F0BD42410020F8B586B00800140015
:1017D0000DA90978002900D1F1E01D0004216B5EFC
:1017E000002B00DCEBE006216A5E002A00DCE6E06C
:1017F0000C996E4634806C4624880026AE5F022722
:10180000ED5F654375196D004019E51A624352009A
:1018100082180DAE3678FF2E15D10E0AF8273F023A
:101820003740BC464F09FC26F6003E4067463E4323
:101830000906C90E3143E60779D56C0002945B00B6
:10184000019300926BE00C02240E0E04360EC9B216
:1018500003910DA909780091FF21009FC91B6D001C
:1018600002955B000193009B5C430594009B5E43E3
:101870000496039B009C63430393009241E003881A
:101880001C0AF8252540DE08FC243440DB00039EBA
:101890001F001B065B0F3B43DBB24B43F318049E58
:1018A0002700A4093C434C433419059E2F006D09C1
:1018B0003D434D437519AEB22D042D0E75196D1CA7
:1018C0002D042D0E2E02F8252D023540A6B224043B
:1018D000240E3419641C2404240EE600FC24E400C5
:1018E00034402C439DB21B041B0EEB185B1C1B04E5
:1018F0001B0EDB081C430480801C9042BFD3029A5D
:101900008018009A90425AD2019A82189042F6D2D8
:10191000F3E70180801C9042FBD3029A8018009A62
:1019200090424CD2019A82189042F6D2F3E7850792
:1019300008D00600650001E0318076199642FBD39D
:10194000801C5B1EDD0FED186D106D005D1B09D056
:101950005D004619B61E650001E031807619964299
:10196000FBD35B1E002B2AD00D040D4301955910AB
:101970008900039161000491464FB92189007918CB
:1019800002910400009206E03060361D8E42FBD3C7
:101990000190049824180098844210D22600B007C1
:1019A00007D03D4A39006831029800F063FD00BF5E
:1019B00000BF039831188C42EBD20198E6E707B0DC
:1019C000F0BD10B5002807D0002913D002290DD092
:1019D0000AD303290BD00EE0002905D0022906D036
:1019E00004D3032906D006E0012010BD30E000201A
:1019F000C04310BD3BE02748284A1BE010B5002833
:101A000007D0002912D002290CD00AD303290CD008
:101A10000EE0002905D0022907D003D3032905D001
:101A200006E015E00020C04310BD20E0012010BDFD
:101A300018481B4A01006831C5239B00C01800F0FC
:101A400019FD00BF00BF002010BD0000484100206C
:101A5000144C2088002806D158221349134800F05E
:101A600009FD00BF00BF20884004400C10BD0D4C94
:101A70002088002806D158220B490C4800F0FAFCB7
:101A800000BF00BF20884004000C0121C94300F0C2
:101A9000B9FD10BD7CF700087B040000A504000020
:101AA000C704000042410020286001087C7501083D
:101AB000FFB593B01C9D1E9C209821990022825E48
:101AC0008388D3181BB201934388C088181800B2CA
:101AD00000904B7B80267600580130408F79384348
:101AE0001B011E40CB791E431FAB1B88F31A9BB210
:101AF000260007D009268957641A210405D52D1B15
:101B0000002402E0092689576D1829B2914202DAB1
:101B1000A1184C1B150000991D9A12B2891A8B420C
:101B200000DD0B000A93070001992AB2891AA2B2BC
:101B30008918884200DD0800A1B2401A07900A986F
:101B4000002800DC54E10798002800DC50E1012661
:101B500003480078012805D169460E7105E000BFF1
:101B60003D41002000206946087127A803781D9A8E
:101B700012B229B215A801F037FF6946488027A89C
:101B800003781D9A12B229B215A801F053FF6946D5
:101B9000088000A8801C00F0B9FC25A800788640C9
:101BA000761E0296FF20F1B200F02CFDC0B2069026
:101BB00000200E903D0025A800780D9023A8007805
:101BC00000280CD008200D9900F01CFD0600A81973
:101BD000401E310000F016FD05007543ADB2229F96
:101BE00008971FA80088204300040ED025A800787D
:101BF0001FA909886943A4B2091948434107490F3D
:101C00000E910899C0080818089027A8017868461E
:101C10000079FFF7D6FE040027A80178684600790E
:101C2000FFF7ECFE06000D980799691A48430990E2
:101C30001498002804D1D94800680168896A884747
:101C40002499009A12B2D64B1B885A43009B1B144E
:101C5000D218520080180C9007986043301A0A027C
:101C6000120E05920A0AD3B20493CBB20393F8235F
:101C70001B0213404E09FC22D20032401A430906CF
:101C8000C90E11436A469180400011901398C068B4
:101C9000610010913900026892689047002800D1D5
:101CA000A8E0089803780E99CB400A980B900E98FC
:101CB00008990C9A26AC24780B9D6D1E0B95079DF8
:101CC000089526AD2C70029C1C40089D6D1E089541
:101CD000002C62D0069D6C436D46AD88FF2C03DB63
:101CE00026AE3678FF2E57D026AD2D786C43A5B2A0
:101CF0002404240E2C19641C2404240E0A94FF24AA
:101D00000A9D641BE4B20C941488250AF8262E4020
:101D10000E96E608FC253540E400039E0A9F7E43AC
:101D200027002406640F3C43E4B20C9F7C43341923
:101D3000049E0A9F7E432F00AD093D430C9F7D43C7
:101D40007519059F0A9E7743BC460E9F7E093E4348
:101D50000C9F7E436746BE19B7B23604360EBE19D5
:101D6000761C3604360E3702F82636023E40AFB2F5
:101D70002D042D0E7D196D1C2D042D0EEF00FC255C
:101D8000ED003D403543A6B22404240E3419641CF2
:101D90002404240EE408254315800D9C001925AC6D
:101DA0002478E34084B2082C02DB0020491C0B7825
:101DB000109C1219089C002C85D126AC2478099D12
:101DC000002D07D0401983B2DB08C9184007400F27
:101DD0000B78C340119D52190B9D002D00D06BE76D
:101DE0001498002804D16D4800680168C96A8847C2
:101DF00017B0F0BD07980D9948430F900E980F99B2
:101E00004118C91D1398C0688A10520F5118CA1082
:101E1000089903681B699847280025A90978484351
:101E2000694688710E9C129526A805780A98401E6E
:101E30000A901398C06801684969884707000A98A2
:101E400000281ED0A0B212990D9A5143401881105B
:101E5000490F0918C910089A56180F9A6B469B79B2
:101E6000E018C900401AC0B21118C91D1398C06803
:101E70008A10520F5118CA10310003681B69984725
:101E80000896079B26A8057020000C993A00157843
:101E9000C540029C2C405B1E002C62D0069D6C430A
:101EA0006D46AD88FF2C03DB26AE3678FF2E57D06B
:101EB00026AD2D786C43A5B22404240E2C19641C85
:101EC0002404240E0B94FF240B9D641BE4B20C9499
:101ED0000C88250AF8262E400E96E608FC2535408B
:101EE000E400039E0B9F7E4327002406640F3C43BF
:101EF000E4B20C9F7C433419049E0B9F7E432F0059
:101F0000AD093D430C9F7D437519059F0B9E77439B
:101F1000BC460E9F7E093E430C9F7E436746BE191A
:101F2000B7B23604360EBE19761C3604360E3702AA
:101F3000F82636023E40AFB22D042D0E7D196D1CE1
:101F40002D042D0EEF00FC25ED003D403543A6B2DB
:101F50002404240E3419641C2404240EE4082543AC
:101F60000D8025AC2478001980B2082801DB002000
:101F7000521C109C0919002B89D126AA157804003F
:101F80000998002802D020184407640F11980818F7
:101F90000C900A98002800D048E721E7484100202B
:101FA0004241002070B51A4EB468002C09D1049D3E
:101FB0001C001300B06071802A002100180000F09E
:101FC00001F870BD70B50500114CA06900281DD145
:101FD0000E001BD0A280A088618809184A00511801
:101FE0004900C200101A40000818B0420AD309483C
:101FF000362201003831F2239B00C01800F03AFA73
:1020000000BF00BF2662256100F006F870BD000029
:10201000D8400020DC350108F0B456480769002F8D
:1020200036D0828841888C18A100631C5D00524B19
:102030002B40D500AD1A6D00ED1C032295433A00EC
:102040005618F618C660CB185D1953198361002322
:102050000380066A751BC561C380002C07D0561823
:10206000274D3B6035803F1DB61C641EF9D15118C9
:1020700041610021DF2208E0C46825000C356D5C59
:1020800015400C3465545B1C0E318488A342F3D395
:10209000F0BC704738B50500364CA068002807D161
:1020A0001848974A0100383100F0E4F900BF00BF3A
:1020B000298808006288914206D2A168083182000E
:1020C00010188000085A16E0A388D318984207DA3F
:1020D000E1680831801AC200101A4000085A0AE06C
:1020E0008848814209D188480078002801D1874872
:1020F00000E0B348008800B232BD002032BD0000CD
:10210000FFFF0000DC35010838B50500194CA06858
:10211000002807D17E487F4A0100383100F0AAF933
:1021200000BF00BF298808006288914206D2A168DA
:102130008200101880000818408916E0A388D31880
:10214000984207DAE168801AC200101A40000818A5
:1021500040890AE06B48814209D16B480078002829
:1021600001D1974800E06948008800B232BD0020E4
:1021700032BD0000D8400020FCFF01007CB5060005
:102180000D00904CA068002807D161488E4A0100DC
:10219000383100F06FF900BF00BF2A881100638852
:1021A00030009A4213D2A2688B0059188900511846
:1021B0008A896B461A80CA895A800A8AD204D20C4C
:1021C0009A80498AC904C90C6A46D18025E0A5884D
:1021D0005D19A94212DAC91ACA00521A5200E368FC
:1021E00099186C460D8825809B1C9A5A6B465A801C
:1021F0008A889A80C9886A46D1800EE00021414BC6
:102200009A426B46196007D16A46904909889180C5
:102210008F490988D18000E059606946082200F0A2
:1022200055F973BD38B50500664CA068002807D184
:102230003748884A0100383100F01CF900BF00BF60
:10224000288801006288904213D2880041188900D2
:10225000A2685018038ADB04DB0C0832515A8B4207
:102260001CD3418AC904C90C408981428041C00FF6
:1022700032BDA0881018814212DA881AC100091AEA
:102280004900E26850180423C35E0832515A8B4259
:1022900004DB0621415E4089814201DA012032BD22
:1022A000002032BD38B50500464CA068002807D193
:1022B0001748694A0100383100F0DCF800BF00BF60
:1022C0006188288888420AD22169002903D08200C7
:1022D0008958002907D1A1688200101804E0A3885A
:1022E000C918884203DA21698000085832BD0549BF
:1022F000884203D159480068406C32BD002032BD8D
:1023000006060000FEFF00003D4100204241002083
:10231000DC3501081906000038B50500294CA06815
:10232000002807D14E484F4A0100383100F0A2F88A
:1023300000BF00BF6088298881421FD2A0688A0040
:102340005218920082185068002837D02369002B59
:1023500035D089005958002931D010895389584304
:10236000138A5B0BDB00528A520B1A430B2A00D0F4
:102370004000C01C03229043081832BDA288821876
:1023800091421BDA081AE268C300181A40001018BC
:10239000027B1F231F2515400B2D0AD122698900BE
:1023A0005158028940894243D21C03208243881835
:1023B00032BD13400D2B01D10D3032BD002032BD96
:1023C00044410020D84000202C06000038B505000C
:1023D000254CA068002807D12148244A0100383143
:1023E00000F048F800BF00BF2988080062889142C9
:1023F0000BD2A1688200101880000818018A490BCE
:10240000C900408A400B084332BDA388D3189842C4
:1024100009DAE168801AC200101A40000818007B2F
:10242000C006C00E32BD124881420DD10B48016872
:102430005820085C002802D0C86C002800D18868A9
:102440000168C96A884732BD002032BD3E41002084
:10245000404100204506000054060000484100208D
:10246000DC3501086B060000D84000209C06000007
:10247000FEFF000000B583B00091019202906A4611
:1024800004491820ABBE002801D101F001FB03B0C4
:1024900000BD00BF1010020070B4103A03D378C919
:1024A000103A78C0FBD2530701D318C918C001D520
:1024B00008C908C0D20704D30B880380891C801C7C
:1024C000002A01D50B78037070BC70478B0701D1CF
:1024D0008307E1D0124205D00B78491C0370401CE1
:1024E000521EF9D1704710B5A02149004418206848
:1024F00000280AD00168C9688847002805D02068EC
:102500000168896888470020206010BD304A127831
:10251000012A08D10022825E0B8803802D480088A2
:10252000401E801A08807047294A1278012A00D07C
:10253000704710B40022825E264B1B885B1E0C88FD
:102540001B1B03800A8010BC7047214909780129B0
:1025500000D0704710B40021415E0622825E1D4B00
:102560001B8844881B1B9B1A038041800421415E09
:102570008280C18010BC70471549097801290ED1AD
:102580000421415E02885218521E43880380114B79
:102590001B885B1E9A1A4280C2888280C180704765
:1025A0000B4A1278012A00D0704710B40422825ED0
:1025B00003889B185B1E448804808988491EC91AB9
:1025C0004180C1888180C28010BC7047000000003B
:1025D0003D4100203E410020F446002804D44942F9
:1025E00000F013F8404260474042002905D45FD014
:1025F00000F00BF8404249426047494200F005F8BC
:102600004942604703460B43E6D40022030A8B424B
:102610000BD203098B4219D243088B422ED2411AA6
:1026200000D20146524110467047FF2209023FD0B6
:1026300012068B4205D3121209028B4201D31212E9
:10264000090203098B4219D300E0090AC3098B422E
:1026500001D3CB01C01A524183098B4201D38B01B4
:10266000C01A524143098B4201D34B01C01A524157
:1026700003098B4201D30B01C01A5241C3088B429C
:1026800001D3CB00C01A524183088B4201D38B0087
:10269000C01A524143088B4201D34B00C01A524129
:1026A000884200D3401A5241CFD2014610467047AB
:1026B00008B501F001FA08BDF8B584B01600002590
:1026C0000022012E38DB01920F0019000BE00020E0
:1026D000019035498C420AD034498C4207D0039886
:1026E0006946097A2200039068460172428101AB73
:1026F0003A006846017A039801F055FA04001BD0AD
:102700000A2819D00198002814D08488407B400002
:102710008021490008400199897A08430095050005
:10272000019A6846418938003B685B6C98472818D5
:10273000009D2D18761ECAD1A8B205B0F0BDF0B527
:102740008FB006000F00012438001FD0149D0593A0
:102750006846027405980168896B8847039741426F
:1027600009B20291059801906846007C0090104BD8
:10277000AAB2310006A802F086FD06A800F098FF74
:102780006846008B00280CD0641CF6E7300001F08E
:10279000C4F90A2800D1641C300001F0BEF90028F9
:1027A000F7D1A0B20FB0F0BDFFFE00000B2000007B
:1027B000FFFF0000F1B5E6B0080011006C9A002A96
:1027C00000D194E105931A68002A00D18FE19A7B29
:1027D000002A00D18BE10B90059840796A4610746D
:1027E00006A80822FFF772FE0B98694682884A8283
:1027F0000B980621445E05988079012821D037D3B3
:10280000032801D00FD333E006A80421415E06223D
:10281000825E0023C35E4688A61BB61A06804380EC
:102820008280C18024E006A84188611AC288891A82
:10283000049A12140388D21A8388D21A0280418023
:1028400016E006A80421405E06A90622895E049AC5
:102850001214069B1BB2D21A121A06AB02269B5FF9
:102860006E46338306AB5A8006AA918006A9C880BB
:1028700005988079012801D0032804D10498001418
:1028800069464C8204006846007C002807D1059800
:102890000079002801D108900EE001200AE0684686
:1028A000007C012805D105980079022801D001207B
:1028B00000E00020089001200A9033A801F008F9F8
:1028C000059800680168096D88470600059800684A
:1028D0000168C96C8847009603006D9A6C9933A80B
:1028E00001F06BFA059800680168896B88470599C3
:1028F0000C22895E471805990968497A40180990A1
:102900001AA801F0E5F80598007C002811D0059878
:1029100000680168096D884706000598006801682D
:10292000C96C8847009603006D9A6C991AA801F04B
:1029300044FA0598007C039005980C21405E0290B3
:10294000059800680190059840790090A3B204981A
:1029500000140599C97B421A92B21AA911A802F073
:1029600092FC0598007C002824D0002420B209990C
:10297000401806A90222895E88422EDA11A800F0CA
:1029800097FE11A8C58A280009D06846067C310048
:1029900033A802F0D1FC6D1EF9D168460674E41923
:1029A00011A80188002900D1A1E02221405C002863
:1029B000DCD09CE00024099D02E00A2800D1E41943
:1029C00020B2401906A90222895E884205DA33A89E
:1029D00001F0A3F80028F0D189E03E000CA802F035
:1029E00073FD00200C900B980D900CA8048106A894
:1029F0000F900598109011AF059C002569468D82B7
:102A0000207C002802D011A800F052FE0A9800286D
:102A10003BD00898002833D0207C00280CD14CA84B
:102A200033A96422FFF738FD6846037C314A2168E8
:102A30004CA8FFF741FE00E0F88B00B221796A460E
:102A4000127C002A0ED1012906D104990914081A12
:102A5000C10F0818401019E004990914081AE17B05
:102A6000401A13E0012906D1049909140818C10F6E
:102A7000081840100AE000290AD1E17B401805E05F
:102A800004980014E17B401A00E0E07B69468882EC
:102A9000207C002801D1174806E0F88A2221795CC1
:102AA0004D1EAD41ED43ED0F0CA903910295019030
:102AB00033A800906846037C226805A9669800F058
:102AC0001BF80CA90889801908812221795C00294A
:102AD0000DD106A9498806AAD288891809B200B280
:102AE000814204DB33A801F04AF8002885D067B0A2
:102AF000F0BD0000FF7F0000F7B5A6B01C002E9DC2
:102B00002F9E0DA829006422FFF7C6FC0027099715
:102B100008976B461F7001970A97200000D03BE191
:102B2000002E00DC7AE305962E95DF8300246946AB
:102B30000E78019D8F74A04A974204D035498F4288
:102B400001D06846C78309AB289A00212E9801F06E
:102B50002AF807000020694608820998002815D045
:102B60008788407B40008021490008400999897A84
:102B700008430090099A6846C18B289803685B6CEB
:102B8000984701000098401869460882002F00D13C
:102B9000D2E00A2F00D1CFE0282F0DD0292F0BD063
:102BA0007B2F09D07D2F07D05B2F05D05D2F03D061
:102BB0003C2F01D03E2F01D1012000E00020087001
:102BC000380030380A2805D3B04838180A28804120
:102BD000C00F00E00120AE497918B822520091429E
:102BE00005D3AC497918EC229200914202D201211E
:102BF000414000E000216B465F806A4652886E4B80
:102C00009A4209D06A465288024B9A4204D0002266
:102C100003E000BF0B200000012201923A00413A7C
:102C20001A2A09D33A00613A1A2A05D3802F04DB05
:102C3000019B0B431B0600D101206A461278024318
:102C4000300005D0022E1DD008D3032E3CD065E005
:102C5000002901D0022611E001260FE0002929D029
:102C600031980390A4B2029401950DA8009000231E
:102C7000289A2799269800F0E5FA02260125684649
:102C8000048A4BE0002A11D031980390A4B2029438
:102C900001950DA800900123289A2799269800F005
:102CA000D1FA012601256846048A3DE001980843CF
:102CB000000603D06D1C6846008A10E00326012040
:102CC0000A906846008A28E00A98401C069000296D
:102CD00007D002262D1808986946098A401824183A
:102CE0001CE0002A14D031980390A0B20290019504
:102CF0000DA800900123289A2799269800F0A2FA9F
:102D00000126069D08986946098A401824180BE098
:102D10000A9008986946098A401808906846807C9D
:102D2000002801D1012E02D101206946887405983E
:102D3000401E059000D0FEE6200031002E000A9CC7
:102D40006A46927CCBB2012B00D138E2022B00D133
:102D500028E2032900D061E2002A3199039111D0C1
:102D600080B2029001960DA800900123289A27991D
:102D7000269800F067FA31980390089880B2029084
:102D8000019443E20899401880B2029030190190F2
:102D90000DA8009001233CE2002E00DC3EE20C96E0
:102DA0000BAB1C702E956B46DF83002569460C78B3
:102DB000019E0F74004A01E0FFFE0000974204D01C
:102DC00035498F4201D06846C78309AB289A0BA8C2
:102DD00001782E9800F0E7FE0700002069468883FE
:102DE0000998002815D08788407B40008021490041
:102DF00008400999897A08430090099A6846C18B6E
:102E0000289803685B6C9847010000984018694651
:102E10008883002F00D1BCE10A2F00D1B9E1282F0F
:102E20000DD0292F0BD07B2F09D07D2F07D05B2F02
:102E300005D05D2F03D03C2F01D03E2F01D10121C1
:102E400000E00021380030380A2805D30F48381830
:102E50000A288041C00F00E001200D4ABA18B823AB
:102E60005B009A4207D30B4ABA18EC239B009A42A4
:102E700001D3002901D0012141400091074B9F421D
:102E80000ED0054A97420BD000210AE0A0F9FFFFBF
:102E900070FAFFFFB004FFFF0B200000FFFE0000F0
:102EA00001213A00413A1A2A0CD33A00613A1A2A0F
:102EB00008D3802F08DB009A1143CAB2521E9241F8
:102EC000D20F02E0012200E000222100072900D9F0
:102ED00051E102A349005B5A9F4400BF10009A02CF
:102EE00024009A0256008C00DC00B001002801D0BA
:102EF00004245DE0002A01D0062459E0022457E0B2
:102F000000280ED031980390ADB2029501960DA81D
:102F100000900123289A2799269800F093F9042419
:102F200046E0002A4AD031980390ADB2029501964E
:102F300035E0002842D12E2F09D02C2F07D03A2F70
:102F400005D0BF48874202D0401C874205D10524E6
:102F500001200A906846808B0CE1002A35D00624B7
:102F6000761C6846808B9BE0002801D0042490E00A
:102F7000002A00D199E031980390ADB202950196F4
:102F80000DA800900023289A2799269800F05AF956
:102F900031980390089880B202900A9801900DA889
:102FA00000900123289A2799269800F04BF90624CF
:102FB00001266846858BDEE0104303D0761C684608
:102FC000808B6DE0009800285AD0ADB2002E26D13B
:102FD0002898016849698847040020D02100289872
:102FE0000268D2689047002845D0417B4900802282
:102FF00052001140827A1143009100996D18ADB2D0
:1030000031990969097C062909D102002100289813
:1030100003685B6C9847281800994518ADB2319841
:1030200000694179012904D127990988491B279A08
:103030001180711E8941C90F069105960DA9049151
:103040000021039102903198C06801902798405E5A
:10305000009031980821435E42680168269800F08C
:103060005BF9319800694079002804D127980088DD
:10307000401927990880022401266846858B80E044
:10308000072401200A906846808B73E0104309D022
:1030900006240A98401C361808986946898B4018FF
:1030A0002D1868E0009800285DD0ADB2002E26D122
:1030B0002898016849698847040020D02100289891
:1030C0000268D2689047002845D0417B49008022A1
:1030D00052001140827A1143009100996D18ADB2EF
:1030E00031990969097C062909D102002100289833
:1030F00003685B6C9847281800994518ADB2319861
:1031000000694179012904D127990988491B279A27
:103110001180711E8941C90F069105960DA9049170
:103120000021039102903198C06801902798405E79
:10313000009031980821435E42680168269800F0AB
:10314000EBF8319800694079002804D1279800886D
:1031500040192799088002240A9E761C089869461F
:10316000898B45180DE00A98401C0A90089869461A
:10317000898B401808906846007C002801D1022CF9
:1031800002D10120694608740C98401E0C9000D0B2
:1031900010E62800089D21000A9C6A46127CCBB2EA
:1031A000022B08D13199039180B2029001960DA8AB
:1031B000009001232DE0042B01D0062B05D131997D
:1031C000039180B20290019620E0072B01D00529DF
:1031D00024D1002A3199039113D080B20290019634
:1031E0000DA800900023289A2799269800F02AF825
:1031F00031980390ADB2029501940DA8009001237F
:1032000007E0401980B20290301901900DA800909B
:103210000023289A2799269800F014F8309800285F
:103220000CD0319803900020029001900DA80090DE
:103230000023289A2799269800F004F829B0F0BDB9
:103240006B060000F9B587B00E00109C119D0F9819
:10325000002826D100921046016849698847070076
:103260001FD0390000980268D2689047002851D0DA
:10327000417B4900802252001140827A1143019122
:1032800001996418A4B22969097C062909D10200B0
:103290003900009803685B6C98472018019944181E
:1032A000A4B228694179370008AA1678002904D108
:1032B000012E02D13988091905E0012904D1310014
:1032C00002D13988091B39800F99491E8941C90FDC
:1032D00006910F9905910E99049103960290E86862
:1032E00001900020385E009008202B5E6A682968F3
:1032F000079800F011F8286940793100014302D1A4
:103300003888001905E0012804D1012E02D138883F
:10331000001B388009B0F0BDF3B59DB017001C004C
:10332000249D2A9E2598008825998988401800B2F6
:103330001390269800680168496D8847401E8041B7
:10334000C00F269909680A7B1692C97A15910095D3
:10335000002100250F91299A1192002E09D0269A5A
:10336000127C062A01D1022200E00122119B9A1848
:1033700011920E91119A002A00DC8BE1C64A189234
:10338000179712AA14801990009C68464186002065
:103390000D9014900CA90870C0498D4204D0C0490A
:1033A0008D4201D0684645860E98299988420FDBE8
:1033B00026980068016849698847050026980068D2
:1033C0000CAB14AA29000668B668B0470D900CE053
:1033D0000CA8019014A800900DAB2698026827A8AD
:1033E0000178289800F03DFC0500AC4EB54200D1B4
:1033F0002FE1AB4FBD4200D12BE1280000D149E1C4
:103400000A2D00D143E10D98002801D085880AE0FB
:1034100026980068016809698847B04200D118E120
:10342000B84200D115E127A80078002801D10F98F3
:1034300024180D98002801D10F900AE1407B40002C
:10344000790908400D99897A08430F9027A80078D8
:10345000012801D10F98241A6846408E002827A819
:1034600000784ED00028269800680D9A6946498E4B
:1034700003685B6C02D19847241844E09847241AEB
:1034800027A80078012809D116980F99401800192B
:1034900025990022895E884200DAE1E00D98092131
:1034A0004056201825990022895E7E090D9B5B7B82
:1034B0005B0133400D9FBF793B43C3188B4200DA59
:1034C000C7E0139B984200DBC3E010AB9B1C1A8043
:1034D0008C4203DA081B10A9891C08800027269853
:1034E00000680168096B8847694608800D9A507B1F
:1034F000C1003140127A114340060BD57000091A01
:1035000008E00028BCD113981599611A884200DAA6
:10351000A6E0C3E7129800B26A4612888018401AE3
:1035200010A90880109800B2019025996A464B882E
:103530001380009909B2019A8A420FDA0D9B5B7BD6
:103540001B011E400D9BDB791E4392198A4200DA53
:103550007FE00F1A009800B210A90880199800287F
:1035600052D00CA80078012814D00CA800780228AA
:1035700010D00CA8007804280CD00CA800780828DB
:1035800008D04848484A010024317430FEF772FFE1
:1035900000BF00BF269800680168096C88470CA925
:1035A000491C08701AA817990822FEF78FFF269861
:1035B00080790B902698807B0A900CA8007809905F
:1035C0002698806808900CA8401C007807901498F2
:1035D00006900D98059025980490BFB2039710A807
:1035E000801C00880290109800B2019010A9891CDC
:1035F0000988601800B200901AA80CC81E991D987E
:103600000668F66CB04724E01D988068002808D151
:103610002448264A010024311898FEF72BFF00BFEA
:1036200000BF1D988068129909B2059104942699EB
:10363000897903912699897B02912699896801915C
:10364000269909680091149B259A17990668B6680F
:10365000B0470E98401C0E901199884200DA96E609
:1036600027A80678289C29980E992A0012D00A2D9E
:103670000DD0491C81420ADA451A3100200001F0C0
:103680005BFE010006D00A2801D06D1EF5D1002096
:103690001FB0F0BD0120FBE758450108FFFE000008
:1036A0000B2000006C440108D1030000D603000089
:1036B000F0B58BB004002220205C00280AD04C48D2
:1036C0004C4A0100243196235B00C018FEF7D2FE5D
:1036D00000BF00BF00270597049700250026E0687B
:1036E0000168896B8847618A40001422A25E8018B5
:1036F000814201DA012000E00020617A491E05299B
:1037000018D801A2525C9744040A121C22220120FC
:1037100004900FE00121414004910AE00121414061
:103720000491060006E00120059003E001214140DC
:1037300005910500E782278332002A436B46DA7140
:1037400000946A4657830A950996978100240020C1
:10375000029000980088202852D101210791B34B94
:10376000984204D0B24A904201D06946488302ABE5
:103770000098C268017A406800F015FA03000098CA
:10378000038004D00098408B401C00994883009827
:10379000C08A694608836846008B00990F8B390000
:1037A000009A528B6D46EA816A46D289009DAD8BA4
:1037B0006E46B5806D46AD88009EF68B002B01D01D
:1037C0000A2B0AD16846008B6946C98940187919C5
:1037D0000B00002500220124ECE06F46BE80029E13
:1037E000002E12D1914FBB4206D1002023E000BF32
:1037F0006C440108F30300008D4EB342F5D0D7E0CE
:103800008B4A9042A9D00021A8E7029880880099AD
:1038100008800298407B45008020400005400298C7
:10382000807A05430098C068029A6946498B03680C
:103830005B6C984728186946C8810098C08A00992F
:10384000098B009A528B009B9B8B6D462B81009BB2
:10385000DB8BAB80009B1E88202E04D0744DAE42C3
:1038600001D0002300E00123079F01257D406F4622
:10387000BD716D46AD792B4203D06B461B896D46F9
:10388000AB816B461B896D466B816B461B89ED894D
:103890005B196D462B812D894B190893009B1B8A60
:1038A0000793089DAB4201DA012300E000236D4637
:1038B0002D89FF79002F2BD00A9F002F07D1099F58
:1038C000002F15D0202E02D0594FBE4210D1079F95
:1038D000BC46089F009E368CBE19B44501DA06002E
:1038E00006D1801849196A469180002500225FE0C0
:1038F000002B5DD003005BD00124009E2227F455ED
:103900006B469B88009E368C9B196E46B3804FE0B9
:10391000002B32D0059B002B0AD0521E80186A461D
:10392000528989186A469180012401226B463BE046
:10393000049B002B3CD0202E04D03D4FBE4201D032
:10394000002300E001236F46BF791F430CD1521EB4
:1039500080186A4692898A186B469A806A4652890C
:103960008918012401221FE0202E21D0304B9E42D5
:103970001ED003001CD001241AE0202E04D02C4BB2
:103980009E4201D0002300E001236E46B6791E431B
:103990000ED1521E80186A4692898A186B469A8008
:1039A0006A465289891801221B896D466D895D1B03
:1039B0006B469B88009EF0820098018300984283AA
:1039C000009885830098C383200000D1BFE6009C47
:1039D000E0680168896B8847618A081A1421615E72
:1039E000401A60820BB0F0BD80B5002B05D0022BD1
:1039F0000DD006D3032B11D014E00022805E4018B6
:103A000002BD01888088081800B2801A04E002888C
:103A10008088101800B2401A401E02BD0021405E8E
:103A2000801802BD1748184A24E00000FFFE00007D
:103A30000B20000080B5002B05D0022B0BD006D345
:103A4000032B0ED014E00221405E801802BD02223A
:103A5000805E401802BD4188C088081800B2801AF4
:103A600004E04288C088101800B2401A401E02BD0F
:103A70000448064A01002431FEF7FCFC00BF00BFE9
:103A8000002002BD6C4401087E0400008F04000089
:103A900080B5012001F02AFD01BD80B50100CA6892
:103AA00048685310C018D20701D4896802E0026840
:103AB00089685158884701BD70478B20400008181D
:103AC0004022895A0288891A4088081A00B2704731
:103AD00038B5050000242C606C60022028746C61ED
:103AE0002C76EC832C84EC862C87EC8740216C525E
:103AF0006C64AC640E22002128004C3001F000FD03
:103B000028005A3004804480848001218171C4716E
:103B1000280001F078FC280032BD70B50400208F29
:103B2000002806D1DD2282498248FEF7A3FC00BFAF
:103B300000BFE08E40002018458C7F4E208F8019FA
:103B40002087E08E401CE08681B20A2901D30A3822
:103B5000E086200001F013FA208C022801D2401CDC
:103B60002084E08B002801D10220E083E08B8019C3
:103B7000E0830004C00B20184583280070BD10B5F9
:103B80000400208F002806D1C5226C496C48FEF73E
:103B900071FC00BF00BFE08E40002018408C401E2A
:103BA0008041C00F10BDF8B504000D0016001F00C5
:103BB000208F002806D1C52260496148FEF75AFCD3
:103BC00000BF00BF2900E08E40002018408C6A46EC
:103BD0001080200001F0B0FB050001D100203DE085
:103BE000290030003268D268904769460988554AF2
:103BF0008918C0229200914208D2386069460B8829
:103C000002003100200000F0EFFF16E04E4AA91834
:103C1000802906D2386002003100200000F0E2FE68
:103C20000BE06121615C002907D0484A954204D12C
:103C300038600100200000F0B1FE00280BD0386091
:103C4000417B4A00802149000A40817A0A43511E83
:103C50008941C90F00E000216122A1543860280089
:103C6000F2BDFEB504000D0016001F00208F0028D5
:103C700006D1C52231493248FEF7FCFB00BF00BF28
:103C80002900E08E40002018408C6A4610802000F9
:103C900001F052FB0500019701D1002043E0099B90
:103CA000089A290030003768BF68B8476946098814
:103CB000244A8918C0229200914209D201990860D1
:103CC00069460B8802003100200000F08DFF18E0EB
:103CD0001D4AA918802907D2019908600200310005
:103CE000200000F07FFE0CE06121615C002908D01B
:103CF000164A954205D1019908600100200000F0A4
:103D00004DFE00280CD001990860417B4A008021BB
:103D100049000A40817A0A43511E8941C90F00E0D7
:103D200000216122A15401990860280003B0F0BD70
:103D30004466010888830108FFFF0000245201083F
:103D40007083010800FAFFFF00F2FFFF0209000084
:103D500012E0891C4160017C0A00022A0CDA491C2D
:103D600001749100411889684161002904D00988D3
:103D7000002901D0012101764168002903D10168A1
:103D8000002918D04160017E00290AD0416900292C
:103D900005D00A88002A02D08A1C426109E000216D
:103DA000017641680A88002A05D0022AD1D08A1CEF
:103DB0004260088870470020704738B5049C016055
:103DC0000021416015688560121D1268C26001748F
:103DD00041610176018701844022815243648464F9
:103DE00001F011FB31BD1CB5140004AA009323009F
:103DF000FFF7E3FF13BD01216022815470470000EB
:103E0000F1B588B00C00008F002806D1C522B0495A
:103E1000B048FEF72FFB00BF00BF0898223008997A
:103E2000C98E4900405A0090002801D100F038FDA9
:103E3000802829DA012C27D13C2802D13E2000F02D
:103E400031FD3E2802D13C2000F02CFD282802D173
:103E5000292000F027FD292802D1282000F022FD8A
:103E60005B2802D15D2000F01DFD5D2802D15B20A2
:103E700000F018FD7B2802D17D2000F013FD7D2885
:103E800002D17B2000F00EFD0898008F012806D893
:103E9000CB2291499148FEF7EDFA00BF00BF089888
:103EA000C08E401C80B20A2800D30A3808992231FB
:103EB0004000085A01900898008F032806D2CB22B0
:103EC00085498648FEF7D6FA00BF00BF0898C08E25
:103ED000811C89B20A2900D30A39089A2232490082
:103EE000515A0391B84C0199A14245D10099B74A62
:103EF000891815291FD30099CE22D20091421AD0D9
:103F0000121D914217D0B24A8918062913D9009977
:103F1000B04A891806290ED30099AF4A8918022998
:103F200009D30099AD4A8918042904D30099AC4AF1
:103F300089181A2920D8089A223240001452009D6C
:103F40000898008F022807DA8E225200A549A64859
:103F5000FEF790FA00BF00BF0898C08E401C80B2E8
:103F60000A2801D2400000E00020089922310D52B9
:103F7000009880B20190009400989C49401819283C
:103F80000ED300989A4940180A2809D900989949EF
:103F90004018632804D30098202801D000F080FC4A
:103FA0000898008F032806D8CB224B494B48FEF7D0
:103FB00061FA00BF00BF0898C08EC01C80B20A28FA
:103FC00000D30A380899223140000C5A0898008F13
:103FD000042806D8CB2240494048FEF74BFA00BFE0
:103FE00000BF0898C08E001D80B20A2800D30A388E
:103FF000089922314000085A7C49411819296FD389
:104000007B4941180A296BD97A494018632867D33C
:10401000A44800990918222962D203990818232874
:104020005ED8BB48201819285AD20098E12189008F
:10403000484303991922514340180019B549421ABF
:104040000898806C00284BD0038B002B48D0046864
:10405000002500E0451C9D4242DAE818C10F08180F
:10406000401081000918490061180291098897B22F
:10407000B942EFD393B28B4201D20300EBE702982F
:10408000841C2DD060880199884229D10898008F1E
:10409000032806D2D222A049A048FEF7EBF900BFC0
:1040A00000BF0898008FC01E089908870898C08E26
:1040B000C01C0899C88681B20A2902D30A38089917
:1040C000C88601200899602288542088EAE300BF4E
:1040D0002452010870830108EC520108A0820108F3
:1040E0000020029005900098202846D000988C4926
:1040F0004018222841D90020694608820198334996
:104100004018152820D30198CE21C90088421BD021
:10411000091D884218D02E494018062814D9019844
:104120002C49401806280FD301982B494018022823
:104130000AD3019829494018042805D30198284931
:1041400040181A2800D9B7E00198694608820398F8
:1041500080B201900898008F032806D8CB22BD4971
:10416000BD48FEF787F900BF00BF0898C08EC01C8D
:1041700080B20A2800D399E099E0B8490198401824
:104180002528B8D8CE20C000039A5118252905D972
:104190001146814202D0B24A9142ACD10099202905
:1041A00001D1B04904E0C522D200891A383A5143FE
:1041B000039A824201D11E3820E01046A84A90425C
:1041C0001AD127201AE000BF51060000B5F9FFFF01
:1041D0002AF9FFFF21F9FFFF19F9FFFF16F9FFFF89
:1041E0001CF7FFFFB45301087C830108DEF9FFFFD1
:1041F000C0F9FFFF8FF9FFFFA63A801A019A9A4B88
:10420000D21A93009A18D20089180B180898806C5B
:10421000002800D16FE7448B002C00D16BE7406889
:104220000025029000E0451CA5423DDA2819C10F87
:1042300008184010029982001218520089180A8842
:104240009FB2BA42EFD39CB2944201D20400EBE792
:10425000881C0290002800D14DE7022005900898A4
:10426000008F032806D8CB227A497B48FEF702F953
:1042700000BF00BF002069460882059C089E641CA0
:10428000318FA0B2884206D3CB2272497248FEF722
:10429000F1F800BF00BFF08E001980B20A2865D285
:1042A00065E000BFD9F9FFFF0020D2E70A3808997E
:1042B00022314000085A0390029800284DD10098FE
:1042C000202803D0B2494018242846D80198B14983
:1042D0004018B42841D20198AF49884203D10398CD
:1042E0001D39884239D06846008AAC49884238D0A6
:1042F000009800020199CBB203430898806C002813
:104300002BD0848B002C28D08068002501900AE0F7
:10431000D1F9FFFF1A410000C86601089483010823
:10432000D8F9FFFF451CA5421EDA2819C10F08184D
:104330004010019982001218520089180A889FB211
:10434000BA42EFD39CB2944201D20400EBE7881C3E
:104350000290002801D0012005906846008A0028BC
:104360008BD0059C641C89E70020F1E70A383100F6
:1043700022314000085AA8494118152900D27EE789
:10438000CE21C900884200D179E7091D884200D1B9
:1043900075E783494118062900D870E79F494118FD
:1043A000062900D26BE79E494118022900D266E730
:1043B0007C494118042900D261E79A4941181A2919
:1043C00000D85CE708967349411819290AD3764941
:1043D00041180A2906D97549401863288041C0430D
:1043E000C00F00E00020694608716021705C401E2B
:1043F0008041C00F69460979002900D1801C0390D3
:104400000298002800D1FFE103994900405A002892
:1044100000D0ECE10598002800D1E8E10446451CF5
:10442000318FA0B2884206D3CB220A490A48FEF750
:1044300021F800BF00BF0898C08E001980B20A287A
:1044400000D30A38089922314000085A554F089E77
:104450002C0023E0EC520108A0820108D4F9FFFFF0
:10446000D2060000D0CF00002C0600000A3811E070
:104470002500641C318FA8B2884206D3CB22AC49F8
:10448000AC48FDF7F7FF00BF00BFF08E401980B2C7
:104490000A28EBD2310022314000085A5E49411807
:1044A0001529E5D3CE21C9008842E1D0091D8842F3
:1044B000DED03B4941180629DAD958494118062966
:1044C000D6D3574941180229D2D3C1190429CFD3D1
:1044D000544941181A29CBD9089607940899896C30
:1044E000002935D0944BC3181A2B05D2C968C000D7
:1044F0000818924940182CE0914BC3180A2B05D29A
:104500000969C00008188F49401822E0274BC218DB
:10451000632A1DD2CD8B002D1AD04A690021069244
:1045200000E0511CA94211DA4A19D30F9A1852100F
:10453000069B9400A41864001B191C888442F0D3C5
:10454000A04201D21500EDE7981C02E0002000E037
:1045500000200690079C651C0899098FA0B288422C
:1045600006D3CB2272497348FDF784FF00BF00BF1A
:104570000898C08E001980B20A2800D30A3808991A
:1045800022314000085A064F089E2C0028E000BF48
:10459000DAF9FFFFDEF9FFFF440600004F060000D6
:1045A0002AF9FFFF16F9FFFFC0F9FFFF8FF9FFFFA0
:1045B0000A3811E02500641C318FA8B2884206D366
:1045C000CB225B495B48FDF755FF00BF00BFF08E73
:1045D000401980B20A28EBD2310022314000085A3B
:1045E0000D4941181529E5D3CE21C9008842E1D0F3
:1045F000091D8842DED0C1190629DBD907494118B7
:104600000629D7D3064941180229D3D39149411825
:104610000429CFD3034907E0B5F9FFFF21F9FFFFD4
:1046200019F9FFFF1CF7FFFF41181A29C2D9089694
:10463000B16C002932D0404BC3181A2B04D2C96880
:10464000C00008183D4907E03D4BC3180A2B05D2AE
:104650000969C00008183B49401820E07E4BC21889
:10466000632A1BD2CD8B002D18D04A6900210792F6
:1046700000E0511CA94211DA4A19D30F9A185210BE
:10468000079B9400A41864001B191C888442F0D373
:10469000A04201D21500EDE7981C00E00020069929
:1046A00000290AD0C988002907D0002805D04188F0
:1046B000002922D1C08800281FD1039802280DD1DB
:1046C00002980088002818D00098AC49884214D17C
:1046D00000200390012069460871FBE003280CD1FB
:1046E00002984088002808D00098A449884204D144
:1046F0000120039069460871E5E0009CB06C002839
:1047000044D0A1B20C4A8A181A2A05D2C0682404DF
:10471000610B4018094908E0094A8A180A2A13D28D
:1047200000692404610B4018064944182FE000BFBB
:10473000EC520108A0820108DFF9FFFFF8CEFFFF6D
:10474000BFF9FFFFF8CDFFFF434A891863291DD247
:10475000C58B002D1AD041690020069100E0481C4D
:10476000A84213DA4119CA0F51184910069A8B0052
:104770005B185B00D2181388A7B2BB42EFD3A5B277
:104780009D4201D20D00EBE7941C00E00024308F25
:10479000012806D8CB227A497A48FDF76BFE00BF84
:1047A00000BF0898C08E401C80B20A2800D30A3887
:1047B000089922314000085A73494018B2288041B4
:1047C000C043C00F08996022895C491E8941C90F06
:1047D000020000D1891C002C09D04A00A25A002AEC
:1047E00005D06A4610710391029400200590039849
:1047F00002285BD102988088002875D10120694683
:1048000008710020039065E0009CB06C00283FD048
:10481000A1B25E4A8A181A2A06D2C0682404610B23
:1048200040185B4940182FE05A4A8A180A2A06D2D3
:1048300000692404610B40185749401824E0064AD7
:104840008918632924D2C58B002D21D0416900200D
:10485000029104E016F9FFFF8FF9FFFF481CA84200
:1048600022DA4119CA0F51184910029A8B005B18BD
:104870005B00D2181388A7B2BB42EFD3A5B29D420A
:1048800001D20D00EBE7901C029002980028AED1F7
:104890000098C821C900884202D100206022B0548B
:1048A000009880B209B0F0BD0020EDE7032808D1E0
:1048B0000298C088002817D101206A461071039021
:1048C00001E0012804D10298408800280CD10AE0B8
:1048D000002809D102980088002805D10298408854
:1048E000002801D00120039002980399490045183F
:1048F00028880028D4D06846007908996022885416
:10490000059C0898008FA1B2884206D2D222AC49F9
:10491000AC48FDF7AFFD00BF00BF0898008F001B3B
:10492000089908870898C08E00190899C88681B22E
:104930000A2902D30A380899C8866846008A0028DE
:1049400019D00898008F022807DA8E2252009E495B
:104950009E48FDF78FFD00BF00BF0898C08E401C29
:1049600080B20A2801D2400000E000206946098A8E
:10497000089A22321152288894E700004406000069
:10498000EC520108A0820108DEF9FFFFDFF9FFFF0A
:10499000F8CEFFFFBFF9FFFFF8CDFFFF10B5040011
:1049A000002912D04C300E22FDF790FD200052302D
:1049B000C17949018022520011405222A25C114368
:1049C0004A42C27020004C3010BD002010BD10B50E
:1049D0000C00100019000268D2689047002800D12E
:1049E000200010BDF2B582B00400160006D154308C
:1049F0000021C180018141810020DEE0B088717B0F
:104A000080256D000B012B40F7793B430093009B01
:104A1000DB1001936E4FC31B08D0DB1E032B05D99F
:104A20001B1F022B42D90F3B072B5DD8208F00287C
:104A300006D1C52267496848FDF71CFD00BF00BFCD
:104A4000B91CE08E40002018408C884210D102989A
:104A50000268D2689047417BCA001540007A05433E
:104A6000480602D5802080002D1A20005430C580D1
:104A700025005435E8880099019A89184018E88083
:104A800020004C3031000E22FDF720FD0620285E6C
:104A9000287069799F220A40C010602101401143AB
:104AA000697168786989401A68701AE020004C3092
:104AB00031000E22FDF70AFD200054300189019AD1
:104AC000891A017042799F2313400904C914602296
:104AD0000A401A4342710189009A891A019A891A77
:104AE000018120004C3068E03C4B984205D09B1C73
:104AF000984202D09B1C98421ED1431E9BB2029A40
:104B000031002000FFF763FF427BD1002940007A8B
:104B10000143500601D56800091A20005430C180B5
:104B2000707B40002840B17A08438108400908188A
:104B300021005431488130E0CA002A40337A1A43B8
:104B4000490601D56900521A27005437FA802449D2
:104B5000244A904204D0884202D0103290421AD1A6
:104B6000727B52002A40B37A1A436B469A8088427D
:104B700001D1B94B00E0431E9BB2029A31002000E4
:104B8000FFF725FF69468988427B52002A40807AD8
:104B90000243881A00E000207881707BC1000D403C
:104BA000317A0D43400602D5802080002D1A0098EE
:104BB000281A210054310881300003B0F0BD0000F4
:104BC000C866010894830108B45301087C83010876
:104BD000310E000024520108708301081B0E0000F2
:104BE000130E0000090E0000F1B582B01500064654
:104BF00054369A4F002D04D1F780378177810020F9
:104C000028E1A8886946C880687B80246400020186
:104C10002240EB791A430092009A042A01DD921097
:104C200000E001226B469A806A46D288C223DB00EC
:104C3000D21A092A5FD90A3A00D1A6E0313A012AEC
:104C400059D9921E00D1A0E0521E012A53D9921EBA
:104C500000D19AE0521E032A4DD9121F012A00D812
:104C600093E0921E042A46D9521F00D18DE0521EB5
:104C7000012A40D9921E00D187E0113A3BD0121F81
:104C800039D0623A052A36D9093A032A33D9121F94
:104C90007BD0521E2FD0D21E012A2CD9D21E74D006
:104CA000521E012A27D9921E6FD0FF23F833D21A41
:104CB000012A20D9921E68D0521E012A1BD9921EA9
:104CC00063D0521E022A16D9D21E022A5DD9D21EE4
:104CD000012A10D9921E58D0521E022A0BD9D21E78
:104CE00053D0521E012A06D9921E012A4DD9921E76
:104CF000032A00D993E00622B25EBA4212D10822FA
:104D0000B25EBA420ED1C1000C40297A0C43400673
:104D100002D580208000241AF480F0880099401A7F
:104D2000308196E002984C3029000E22FDF7CEFB30
:104D30000A20305EB84207D0697B49012140AA7938
:104D400011434908401A70700620305EB8420BD0FB
:104D500000994018307071799F220A400004C014F5
:104D600060210140114371717079C1000C400299BA
:104D70005422895C0C43400602D580208000241A0E
:104D8000F480F0880099401A45E00622B25EBA42EB
:104D900010D10822B25EBA420CD1C1000C40297A6F
:104DA0000C43400602D580208000241A0098201A67
:104DB00030814EE002984C3029000E22FDF786FB30
:104DC0000A20305EB84207D0697B49012140AA79A8
:104DD00011434908401A70700820305EB8420CD068
:104DE000019909B2401A307071799F220A4000047B
:104DF000C01460210140114371717079C1000C40F1
:104E000002995422895C0C43400602D58020800020
:104E1000241A0098201A308102984C301AE0C10000
:104E200021402A7A1143400601D56000091AF18019
:104E3000F0880099401A308109202F56687B400184
:104E40000440A879044360000521FDF7DEFB381813
:104E50007081280003B0F0BD0C0E00000080FFFF41
:104E6000FEB50400914244D269460988551AADB294
:104E7000012D3EDB8F4F208F002806D1EA228E497C
:104E80008E48FDF7F7FA00BF00BF268FF019208784
:104E9000CB228B498B48FDF7EDFA00BF00BFE08EB7
:104EA0008019C01980B20A2800D30A3821002231A3
:104EB00040000E5A4020205A401C032806D3F022FE
:104EC00081498248FDF7D6FA00BF00BF4020205A32
:104ED000401C40216052E08F002801D1801CE087F7
:104EE000E08FC019E0870004C00B201846876D1EB4
:104EF000C1D1208F69460988884206D2D2227449DE
:104F00007448FDF7B7FA00BF00BF208F69460988D3
:104F1000401A2087E08E694609884018E08681B2F1
:104F20000A2901D30A38E08668468588614E1FE069
:104F3000AD1902982904C90B475A208F401C0A2832
:104F400006D9F022B249B348FDF794FA00BF00BF7A
:104F5000208F401C2087E08E002801D10A30E08697
:104F6000E08E8019E086210022310004C00B0F5230
:104F70002804DDD1200000F002F803B0F0BDF8B540
:104F8000A54900914B4F06004020305A002861D0BF
:104F9000318F0A2961D0F18F490071184C8FC019E7
:104FA00040217052F08F401CF08781B2022901D35A
:104FB000801EF087308F0A2807D3FF221232009913
:104FC0009648FDF757FA00BF00BF308F401C30876E
:104FD000C519A9B280B2814207D3FF222432904979
:104FE0009048FDF747FA00BF00BFF08E401980B22D
:104FF0000A2800D30A383100223140000C52C3E79E
:105000000A3823E03000FEF7A3FE0400308F0A28A0
:1050100007D3FF22123200998048FDF72BFA00BF18
:1050200000BF308F401C3087C519A9B280B28142C1
:1050300007D3FF2224327A497A48FDF71BFA00BFD2
:1050400000BFF08E401980B20A28D9D23100223137
:1050500040000C52308F0A28D4D1F1BDF8B5476C0E
:10506000798849080A24060068460180641E308F4A
:10507000002806D1C5226C496C48FDF7FBF900BF3A
:1050800000BFF08E40003018458C2B003A00684677
:105090000188300000F0D4F8002809D02A00400030
:1050A0003918300000F018F8002801D0002CDDD1AC
:1050B000F1BD0000FFFF0000D0670108A0830108D8
:1050C000EC520108A08201084C67010854810108D4
:1050D000C866010894830108F0B585B0049068465D
:1050E000C2801AE00F26010A31406A469180010908
:1050F000314006400C0068468588009183883A005C
:105100000299049800F027F8002817D10398690045
:10511000401861004018710041180888891C0291EC
:1051200001040F0F02997A008918039109886A46D1
:10513000D2889142D6D0002005B0F0BD02987919EE
:105140000919490043183200684681880498FFF71E
:1051500087FE0120F0E7FEB50700002610002AD0E8
:105160000C00684642802588A41C68464088801B45
:10517000401E6946088068460088398C884206D3FC
:10518000CB222B492B48FDF775F900BF00BFF88BE8
:1051900069460988401880B2022800D3801E40006A
:1051A0003818408B854230D1761C69464988B0B2A8
:1051B0008842D8D32100089A6846008900248018C4
:1051C0000090009801281DDB0E003588B61C398F31
:1051D000A0B2884206D3CB2217491848FDF74AF9F6
:1051E00000BF00BFF88E001980B20A2800D30A3829
:1051F00040003818408C854207D1641CA0B2009949
:105200008842E2DB012003B0F0BD0020FBE7000094
:1052100054680108688101085C690108AC830108D1
:10522000D8680108C082010824520108708301086F
:10523000E0690108D0820108EC520108A08201084F
:1052400070B4100000240A000588AB4205D3910019
:105250004118091F0988994204D2002070BC704788
:105260004C1CA4B29442F8DAA118CD0F6918491069
:105270008D0045192E889E42F2DBB34201DA8AB2D4
:10528000F0E76888EAE7FBB50400089809990A9BEB
:105290000B9D00262680019F676020726572E16089
:1052A0002282684600896082A382E6822683668322
:1052B000A683E683268422202654607A002826D0FE
:1052C000E068016849698847070020D0E068390034
:1052D0000268D2689047050019D080267600687B66
:1052E00040003040A97A08432084607A06280ED115
:1052F000E0682A00390003685B6C9847218C6A7B60
:1053000052001640AA7A16438019081820842000FB
:1053100003B0F0BD0CB480B50A0002AB002100F070
:10532000F9F8019904B0084708B400B501AB00F0E2
:10533000F1F8009902B00847F8B50400FEF760FDE7
:1053400021002231E28E52008852606C002856D033
:105350004F4E504D208F002806D1C5222900300025
:10536000FDF788F800BF00BF20002230E18E490021
:10537000405A002843D02000FFF770FE208F0128FC
:1053800006D8CB2244494548FDF774F800BF00BF5A
:10539000E08E401C80B20A2800D30A38404F21001A
:1053A00022314000085AB84229D1208F002806D166
:1053B000C52229003000FDF75DF800BF00BF2000C6
:1053C0002230E18E4900455A208F022807DA8E22CA
:1053D000520034493448FDF74DF800BF00BFE08E5D
:1053E000401C80B20A2801D2400000E000202100C9
:1053F00022310D5220002230E18E49004752200018
:10540000FEF78BFBF2BD10B50400FFF7B8FD2000DE
:10541000FEF7F1FC10BD07B582B01A00069B08A983
:1054200001910799009103A9FDF7C4F905B000BDEA
:10543000002800D0704738B51C484168002908D0C2
:105440000A688A1882604A688A18C2608A688C185A
:1054500005E0174981601749C16017490C68002CA5
:105460000CD00021018000F0FFF8050000F0FEF8EC
:1054700012490C60124908601248058031BD0B4882
:105480008268C068890040584000101870470000CA
:105490007083010824520108EC520108A08201081F
:1054A0003F090000B45301087C8301080C4100202F
:1054B000687A0108387F01080085010874410020DE
:1054C0007C41002090410020002101604160018169
:1054D000C160016170478A20400008184222895A41
:1054E0000288891AC088081A00B2704780B500BFC8
:1054F00000BF024A11001820ABBEFBE726000200E5
:1055000010B50400080011000200200000F0B6F8F9
:10551000200010BDF2B59AB0060017001C0001A8CB
:10552000FEF7D6FA30003168096D88470500300073
:105530003168C96C8847009503002200390001A832
:10554000FEF73BFC0024414F1AA8057809E02B0028
:105550003A00310001A8FDF7AFF802B2944200DA38
:10556000040001A8FEF70BFB0028F0D020001BB0C0
:10557000F0BD0CB4F8B59AB005000F0020AC01A83E
:10558000FEF7A6FA28002968096D8847060028005A
:105590002968C96C8847009603002200390001A8D9
:1055A000FEF70BFC012402E00A2800D1641C01A8CC
:1055B000FEF7B3FA0028F7D1A0B21BB00499F0BCF3
:1055C00003B008470CB4F8B59AB005000F0020AC42
:1055D00001A8FEF77DFA28002968096D88470600B2
:1055E00028002968C96C884700960300220039000A
:1055F00001A8FEF7E2FB154C002000906B462A0044
:10560000002101A8FEF7CFFA4027BE001AE00A28C1
:1056100012D0009800280FD0407BC1003140009A82
:10562000127A1143384201D07000091AE888401AF2
:1056300000B2A04200DC04006B462A00002101A851
:10564000FEF7B1FA0028E2D12000B6E7FF7F0000A4
:1056500010B5094C00F044F8206000F073F8606069
:1056600000F0A2F8A06003E00820704702487047ED
:1056700000F0CAF8E06010BD1C4100201206130AB9
:105680001A43130C1A4300BF094205D0830707D001
:105690000270401C491EF9D1704700000022FFE74C
:1056A0001300103906D330B41400150010393CC073
:1056B000FCD230BC490700D30CC000D504C089001F
:1056C00002D30280801C002900D50270704700219F
:1056D000C9438181018441841168C16110607047B0
:1056E00010B58EB0134C2078002820D101202070F6
:1056F000114A00200D900C900B903F200A900F480B
:10570000099010002030089000200790069001209A
:105710000590042004900020039002900B2001903B
:105720000D2000900F230649201D00F09FF8201D3A
:105730000EB010BD10400020E87D0108F88401087B
:10574000147A029010B58EB0134C207800281FD127
:1057500001202070114A00200D900C900B903F20EA
:105760000A900F48099010002830089000200790F8
:1057700006900120059004200490002003900290E0
:1057800019200190009013230649201D00F06EF8A7
:10579000201D0EB010BD00BF44400020B47B0108A6
:1057A000408301080879029010B58EB0124C207821
:1057B00000281ED101202070104A00200D900C906E
:1057C0000B903F200A900E480990101D0890002071
:1057D000079006900120059004200490002003907B
:1057E00002900A200190009001230649201D00F03C
:1057F0003DF8201D0EB010BDDC3F00208084010864
:10580000F4840108707B029010B58EB0134C2078A0
:1058100000281FD101202070114A00200D900C900B
:105820000B903F200A900F4809901000103008900C
:10583000002007900690012005900420049000208D
:105840000390029018200190009008230649201D23
:1058500000F00CF8201D0EB010BD00BF78400020F5
:1058600058820108FC840108E87A0290FFB587B0ED
:1058700004001099119A129B199F1C9E1D9D1BA834
:10588000008806901AA80088059017A80078049050
:1058900016A80078039015A80078029014A8007844
:1058A000019013A800780090200000F0B2F81E4884
:1058B0002060089860616846008D20830998E06147
:1058C000189820626762A662E56220000BB0F0BD06
:1058D000FEB5060014001D0000F056F8010000207F
:1058E000C04381421ED01148006800281AD000959C
:1058F00001940F4C0E23220075690E277943691815
:105900000568ED68A847210030003268D26D9047E5
:105910000199086030003168C96B884700990870A8
:105920002000FEBD0020FEBDC46E01086C410020B9
:105930002C41002030B50D00046A280000F084F8E6
:10594000A988C90A89006158081830BD30B5002AF5
:1059500018D0137B002B15D0406A547B2402E0251D
:10596000ED002540D27A1543AA00801802E009D341
:105970005B1E001D1A0405D002889142F7D1022156
:10598000405630BD002030BDBCB5030008000021EA
:105990001A8B521EDC6900942488051B11D4AA427C
:1059A0000BDA009C5500645B141B2518AA4208DB27
:1059B000002D02D5D40FA4186510002A01D401933C
:1059C00011E00020C043B6BD6A1E8A42F9DB5400D4
:1059D0001B5BD31A1D18AA42F3DB8D4203DA8B1826
:1059E000DC0FE3185D10019BDB696C001C5B6F46EC
:1059F0003C80A0420BD0E7D3691C8A42E1DB0C1843
:105A00004D005B5BE51A8D42DBDBAA42E6E728002E
:105A1000B6BD18B587B010AC248806946C46A48F28
:105A200005940EAC247804940DAC247803940CAC4B
:105A3000247802940BAC247801940AAC2478009466
:105A400000F00DF808B010BDC37882784178007876
:105A50001B021A4309021204084310437047FEB5A3
:105A600009990A9A0B9B0C9C0D9D0E9E6F463F88D0
:105A700087806F46BF88C7806F463F7A077208AF3E
:105A80003F7847724906490ED2010A438272C372B7
:105A90000473C5810682FEBD80B500F001F802BD29
:105AA00070B506003B4830603B483060A8220021BA
:105AB000301DFFF725FD0024842174523000AC30E6
:105AC00001F042F83000EE3001F03EF8982040003E
:105AD000301801F047F89C21490074542F4D30498B
