:020000040800F2
:10000000F0070020C56A0008A5680008A768000876
:1000100000000000000000000000000000000000E0
:10002000000000000000000000000000A9680008B7
:100030000000000000000000AB680008AD68000888
:10004000E70B0008B9680008C56800082F0C000815
:10005000530C0008E1680008D3680008570C00083A
:100060005B0C000867340008A33A00088F460008BC
:10007000B74600088F4A0008374E0008B75C0008F2
:100080000F5F00087B5F0008CF660008EF6700087D
:10009000736A00087F6A0008DD6A0008DF6A0008EA
:1000A000E16A0008EF680008E36A0008E56A0008F2
:1000B000E76A0008E96A0008EB6A0008ED6A0008D0
:1000C000F6B583B077490968774A914200D3490869
:1000D0000024764D019002910E4628880021324678
:1000E000002300F0F7FB724A002300F00CFC01999A
:1000F000814220D2641C688800213200002300F075
:10010000E9FB6B4A002300F0FEFB0199814212D209
:10011000641CA88800213200002300F0DBFB644A45
:10012000002300F0F0FB0199814204D2641CAD1D54
:1001300060B25A28D1DB200661D067B2781E5A28F7
:1001400010D20D46594879004018801E00880021C1
:100150003246002300F0BEFB554A002300F0D3FBDB
:100160002E1A00E0534E5A2F0ED2019D4F487900AF
:10017000405A0021029A002300F0ACFB4C4A0023B5
:1001800000F0C1FB2D1A00E04A4D781C5A2811D20C
:100190000199009145487900401840880021029A51
:1001A000002300F097FB424A002300F0ACFB0099CB
:1001B000091A00E03F490020C0430200012E01DB84
:1001C000330000E07342834205D0012E01DB320090
:1001D00000E072427C1E012D01DB280000E0684235
:1001E000904205D2012D01DB2A0000E06A423C006A
:1001F000012901DA48420100914200D27C1C049D91
:10020000039E64B22000092100F0D1FB2870C100D8
:100210000818201A307005B0F0BD70B586B0274AB6
:100220008218274B9A4201D2042200E008220B00D8
:10023000410BC0045A43D31700F04CFB04AA03C27D
:100240001D48066804A803C83200002300F05BFBC9
:100250000400651C300000212A00002300F03AFB56
:1002600002000B0004A803C8121A8B4102920393E8
:1002700004A803C80090019130000021220000234F
:1002800000F028FB009A019B121A8B4102980399F7
:10029000994203D801D3904200D22C00200006B02E
:1002A00070BD00006C01002081C3C901F067000827
:1002B000A0F70300FFFFFF7F6C01002020C4C5CE24
:1002C000210CB70DF0B58BB007006A4601216C20F8
:1002D00000F01EFCA049087068460078C006C10FF7
:1002E00001244C409D4800689D49884202D2002C60
:1002F00003D167E066D9002C64D1632000F024FCB0
:10030000954D00206946087068460078FF281FD088
:1003100068460078401C087068460078FF2817D0AF
:1003200068460078401C087068460078FF280FD0A7
:1003300068460078401C087068460078FF2807D09F
:1003400068460078401C087068460078FF28DFD1B6
:1003500000F04AFC287840080228D2D101206040F1
:1003600000F0C8F9622000F0EFFB2C46002069463F
:10037000087068460078FF281FD068460078401C47
:10038000087068460078FF2817D068460078401C3F
:10039000087068460078FF280FD068460078401C37
:1003A000087068460078FF2807D068460078401C2F
:1003B000087068460078FF28DFD100F015FC20782F
:1003C0004008D3D16548026814006548844200D9CA
:1003D00064080597C2480121002300F094FA9C307C
:1003E00069460873BE4801212200002300F08BFA01
:1003F0009C3003A9487003AA0221092000F06DFB7C
:100400000598856855480668554FBE4200D976085C
:100410000024006800900098B84200D940080021EC
:10042000220604D1AF4A002300F054FA08E0AE4A95
:10043000002300F04FFA2122121B00F0E9FB01001B
:10044000A94236D2641CE0B20C28E4D12800002175
:100450002122121B00F0ECFB6A4603C2684603C867
:100460003200002300F04FFA050030000021AAB24C
:1004700080235B02D218D31700F02CFA06AA03C21D
:1004800030000021AAB2994BD218D31700F022FAFB
:100490006A460CCA801A994106000F0006A803C8D4
:1004A000121A8B419F421FD801D396421CD26D1C59
:1004B0001AE028002106CAD1010000206A4603C2C2
:1004C000684603C83200002300F01DFA0500300022
:1004D0000021AAB2002300F0FDF906AA03C23000F1
:1004E0000021AAB2521CD0E703AE2804000E3070DF
:1004F0007570059800790443B4700598C46800AA23
:10050000521C0121052000F003FB6A4601216D20E9
:1005100000F0FEFA104908700025104F386811E00D
:100520000021734A002300F0D5F91722521B00F076
:100530006FFB844216D36D1CE8B20C282DD03868AE
:100540002906EDD10021FF22002300F0C3F9800D20
:100550008A021043EDE700BFEC0300206C0100208D
:1005600080C3C901280618D1A10AA00506AA03C2A2
:100570003C6806A803C82200002300F0C4F9070065
:1005800020000021FAB2002300F0A4F908AA03C257
:1005900020000021FAB2521C20E020000021172286
:1005A000521B00F045FB06AA03C206A803C83A681E
:1005B000002300F0A8F90700FCB25D4800680021A4
:1005C00080225200A218D31700F084F908AA03C2AF
:1005D000574800680021FF22921CA218D31700F090
:1005E00079F902000B0006A803C8121A8B41009289
:1005F000019306A803C808AA0CCA801A9941009A58
:10060000019B8B4203D801D3824200D27F1CF21C93
:100610000121112000F07CFAF078F02101400D4317
:10062000F570377102AA521C02A9891C059800694D
:10063000FFF746FD6846807A00016946497A014322
:10064000717103AA06210E2000F047FA03AA0321C4
:10065000622000F05DFA059800795028307806D0C5
:100660004006400E30707078FD21014005E0802189
:10067000014331707078022101437170B178FC2020
:100680000840B07005998968FA22920191420CD312
:100690005200914201D2012105E0264A914201D245
:1006A000022100E003210143B17003AA032162206B
:1006B00000F013FA02AA0121142000F029FA68467A
:1006C000007A802101436846017202AA01211420A8
:1006D00000F003FA0598006800F02EF80BB0F0BDAA
:1006E000000074B7FFFF0000FFFF010001000100E0
:1006F000FF01000010B582B004006A4601216C20A1
:1007000000F006FA012C6846007802D1EF21014082
:1007100001E010210143684601706A4601216C2006
:1007200000F0DBF93C49087002B010BD0000000089
:100730006C01002024F40000F0B583B00500102601
:1007400000AA521C01216D2000F0E2F93249087024
:10075000082468464078204201D0022100E00121AF
:100760002800FFF75AFD07002D48281801902D4951
:10077000884200D2002600AA521C01216D2000F000
:10078000C7F92549087068464078204201D0022107
:1007900000E001210198234A904200D204241F481E
:1007A000006800F007F920496543204A954205D3C7
:1007B000884201D3402504E0202505E0884202D389
:1007C0006025002401E0402504246A4601216520BB
:1007D00000F09EF968460078FB2101400C43684612
:1007E00004706A460121652000F077F902A83901FA
:1007F000090F0D432E430670390C4170390A817080
:10080000C77002AA0421052000F067F902490870A8
:10081000002003B0F0BD0000EC0300206C010020BC
:1008200020C4C5CE210CB70D81C3C90100A493D645
:10083000274800687047000010B582B004006A467F
:100840000121622000F064F9012C6846007802D191
:100850004021014301E0BF210140684601706A4622
:100860000121622000F039F91849087002B010BD6A
:1008700000B581B00F2901DB012102E019224900F6
:10088000511A6A46117001216123181AC0B200F092
:1008900024F90E49087001B000BD10B582B0040003
:1008A0006A460121622000F033F968460078F82199
:1008B00001400C43684604706A460121622000F042
:1008C0000CF90249087002B010BD0000EC030020D2
:1008D0006C01002030B4434351435D18010C0C00FF
:1008E000130C5C432D1980B2434392B25143002450
:1008F000C918644124040B04090C09195043C01899
:10090000694130BC704712422DD0994231D970B53F
:1009100000251B4209D00C00002112E0110000F05C
:1009200049F80A000021002370BD0942F6D00024D6
:10093000012649186441944200D3A41A7641F8D3A1
:100940003100012601E0764109D2001864416D4171
:10095000A41A9D41F7D2A4185D41B619F5D3300011
:1009600022002B0070BD1B42CFD108B500F072F9F8
:1009700008BD01D19042CAD202000B000021002024
:100980007047F446002804D4494200F013F840426E
:1009900060474042002905D45FD000F00BF8404288
:1009A00049426047494200F005F849426047034622
:1009B0000B43E6D40022030A8B420BD203098B427D
:1009C00019D243088B422ED2411A00D2014652411D
:1009D00010467047FF2209023FD012068B4205D312
:1009E000121209028B4201D31212090203098B422F
:1009F00019D300E0090AC3098B4201D3CB01C01A05
:100A0000524183098B4201D38B01C01A52414309E1
:100A10008B4201D34B01C01A524103098B4201D3CF
:100A20000B01C01A5241C3088B4201D3CB00C01A3C
:100A3000524183088B4201D38B00C01A52414308B4
:100A40008B4201D34B00C01A5241884200D3401A56
:100A50005241CFD201461046704708B500F0FCF86D
:100A600008BD30B501684118446862088A18836877
:100A7000E40704D54C461B1901E0641C09D19142DE
:100A800003D00C7864B2491C01E00C3030BD0D7805
:100A9000491C1D705B1C002CEFD4641EF7D5EEE7DB
:100AA00001684C4A11604368536083689360C06872
:100AB000D060002902D10020C04370470020704759
:100AC00000B581B0434800688047002802D5002067
:100AD000C04300E0002001B000BD10B582B013009B
:100AE00000AA921C0024148000ACA41C60700A00B0
:100AF000190000A8801C374B9B68984720786946EE
:100B00004870607808706846008802B010BD000028
:100B100030B581B0130000AA921C00BF30A4258814
:100B2000158000ACA41C60700A00190000A8801C8D
:100B3000284B9B6898472078694648706078087011
:100B40006846008801B030BD10B582B000A9891C8C
:100B500024A213880B8000ACA41C6070002200212A
:100B600000A8801C1B4B9B689847207869464870FA
:100B7000607808706846008802B010BD10B582B079
:100B80000200684614A31C880480D2B2114B9B68F3
:100B900098476846017801AA517040786946087103
:100BA000019802B010BD000010B582B00200684686
:100BB0000AA31C880480D2B2064B9B6898476846FB
:100BC000017801AA5170407869460871019802B015
:100BD00010BD0000B803002000FF000001FF00006E
:100BE000010000008000FEE710B582B0074C6A46A5
:100BF00001218E20FFF78CFF2070684600784008A6
:100C0000217849088842F2D102B010BDEC030020DF
:100C1000D2B2203A03D30800D040002170472032DE
:100C2000D141D04048409140D14048407047FEE714
:100C3000D2B2203A03D301009140002070475242C3
:100C4000D0415242203291404140D04090404140FA
:100C50007047FEE77047FEE77047FEE730B581B0AA
:100C6000040001D1012051E02500403568780028BA
:100C700003D12870200000F0F9FB24206870206860
:100C8000016801229143016060682F49014020689A
:100C9000016121682D488A6802408A60E168012963
:100CA000A16801D1C24301E0842212020A432168F3
:100CB0008A60E168022921684A6803D180231B0108
:100CC000134301E0224B13404B6021684A68214BDB
:100CD00013434B602168CA681040C860206961698D
:100CE0000143A069000208432168C860E069216AE5
:100CF0000143206801602068016801220A43026004
:100D000000206860202169702063A87001B030BDA8
:100D100030B581B0040001D1012012E0250040353A
:100D2000242068702068016801229143016020003E
:100D300000F09DFB00206860002169702063A970AD
:100D4000287001B030BD0000FFFFFFF0FF7FFFFF04
:100D5000FFF7FFFF00800002FEB586B004004030C0
:100D60004178202900D03DE10E99002902D00F9F43
:100D7000390003D1802189004160F9E04020205CE6
:100D8000012800D12EE101204021605400F070FBC9
:100D90000500206880263602816931400AD000F0C3
:100DA00067FB401B1A28F4D3206880690640F0D006
:100DB0002100D3E001940495109E6946098B019AA5
:100DC000403200922122009B5A704022009B9A7070
:100DD0000022009B5A600E9A019B5A62019A578525
:100DE0000022019B5A638905890D029141687F4A5F
:100DF0000A40029911436A46128C1206120A0A43EB
:100E00007B4911434160049A3100019800F04BFA8C
:100E1000002838D16846848B008C01280AD0200A2B
:100E2000019909688862049A3100019800F03BFA40
:100E3000002828D1E4B20198006884620020C043F1
:100E40000390019D049F28688024816921401DD161
:100E500003988642F7D000F00BFBC01B864201D3FB
:100E6000002EF0D1286880690440ECD12020009940
:100E700049680143009A5160009948700020009928
:100E80008870009908700020009970E0698DFF2932
:100E900032D9FF2129854168564A0A4002991143F7
:100EA000554A0A43426010962868022681693140FB
:100EB0002ED13A001099280000F053FA002857D19B
:100EC000109803998842EFD000F0D2FAC01B109915
:100ED000814201D30029E7D1286880690640E3D127
:100EE0002900403120204A6802434A6048700020AF
:100EF00000228A7008703BE0698D298543683D4A6D
:100F00001A40029B13430906090A1943A204C8E7C1
:100F1000696A09788162686A401C68623748698D2D
:100F200009186985298D08182885698D00293AD006
:100F3000000438D1109E2868816921401AD1039895
:100F40008642F8D000F094FAC01B864201D3002EEE
:100F5000F1D1286880692040EDD12900403120205E
:100F60004A6802434A604870002000228A70087074
:100F7000012038E010961F496A8DFF2A07D9FF2209
:100F80002A85029A4368194011431B4A09E06A8D79
:100F90002A8543681940029B0B431206110A194324
:100FA000A2040A434260688D002800D07CE71099B3
:100FB0003A00280000F0A9F901000ED120202A688B
:100FC000D0612A685368A74E1E4056602A004032FE
:100FD00050700020002393701070481E8041C04361
:100FE000C00F00E0022009B0F0BD0000009800FC36
:100FF00000200001009C00FC0000FF01FFFF00003A
:10100000FEB584B0040040304178202900D026E1AC
:101010000C99002902D00D9F390003D1802189004D
:101020004160E4E04020205C012800D117E101206C
:101030004021605400F01CFA05002068802636022A
:101040008169314009D000F013FA401B1A28F4D30B
:10105000206880690640F0D0BEE002950E9E694689
:10106000098A2222230040335A7040222300403351
:101070009A700022230040335A600C9A626267859E
:10108000002262638905890D00914168764A0A4011
:10109000009911436A46128B1206120A0A438021F4
:1010A000890111434160029A3100200000F0FBF8F1
:1010B00000283AD16846858A008B012809D0280A81
:1010C00021688862029A3100200000F0ECF80028C4
:1010D0002BD1EDB2206885620020C043019035001D
:1010E000029F206840268169314022D101988542C3
:1010F000F7D000F0BDF9C01B854201D3002DF0D11F
:10110000206880690640ECD12020210040314968E8
:1011100001432200403251602100403148700020DC
:1011200021004031887040216054002040216054EB
:101130005DE04D49628DFF2A1CD9FF22228542685D
:101140001140009A0A43494911434160206804262E
:10115000816931401BD101988542F7D000F088F9B0
:10116000C01B854201D3002DF0D120688069064064
:10117000ECD131E0628D228543681940009B0B431E
:101180001206110A19433A4A0A434260DEE7406AEE
:10119000616A0870606A401C60623649208D4018A0
:1011A0002085628D51186185618D002939D0000438
:1011B00037D120688026816931401AD10198854253
:1011C000F7D000F055F9C01B854201D3002DF0D1B6
:1011D000206880690640ECD12100403120204A6817
:1011E00002434A604870002000228A700870012083
:1011F00036E02149628DFF2A07D9FF222285009A15
:101200004368194011431D4A09E0628D22854368F5
:101210001940009B0B431206110A1943B2040A43FA
:101220004260608D002891D129003A00200000F032
:101230006CF801000ED120202268D061226853682A
:10124000084D1D40556022004032507000200023A0
:1012500093701070481E8041C043C00F00E0022010
:1012600007B0F0BD00E800FE009800FC0024FF017C
:1012700000240002FFFF0000009C00FC0000FF01B2
:101280004121405C7047406C704700688169890764
:1012900001D500218162012182690A4002D182695F
:1012A000114381617047F0B581B0022604000D0042
:1012B000170020688069304025D13A0029002000BD
:1012C00000F04FF8002804D10020C0438542F0D040
:1012D00002E0012001B0F0BD00F0CAF8C01B854259
:1012E00001D3002DE5D1206880693040E1D1200094
:1012F0004030202142680A434260417000210022B0
:1013000082700170E5E70020E4E7F0B581B02025A8
:1013100004000E0017002068806928401FD13A00A1
:101320003100200000F01DF8002802D0012001B09B
:10133000F0BD00F09DF8C01B864201D3002EEAD11B
:10134000206880692840E6D1200040304168294368
:10135000416045700021002282700170E6E70020A4
:10136000E5E7F0B583B00600002430688369002506
:1013700017001022134042D0C261009133E02000D8
:1013800035D100980021C94388422CD000F070F874
:10139000C01B0099814201D3002924D130684168E3
:1013A00032004032927883691B040BD58023DB0125
:1013B000194007D1202A05D041680B43436000F053
:1013C00057F8070001962026019800688069304090
:1013D00008D100F04DF8C01B1A28F5D328002025AD
:1013E00005430124019E316888698006C7D528001D
:1013F000002C01D12022CA61042505430124316853
:10140000886980225200104202D001242543CA611B
:101410009100084205D02A00082515433268D161A1
:1014200001244908084006D02800022505433068F9
:10143000C161012401E0200012D03000FFF725FF38
:1014400030684168084A0A404260300040304168D4
:101450000D434560202141700021002282700170FF
:10146000200003B0F0BD000000E800FE70477047A8
:1014700001480068704700BF24020020F1B582B027
:10148000AC4CA06838210140E0688007800FAA4F6B
:10149000029A1278D20600D488E0002903D01829D5
:1014A0005CD101285AD12068800704D50298C06910
:1014B000002800D194E00825F0222068284001D0BF
:1014C000206801E07868000902400298406A824280
:1014D00017D200F073FB002800D081E0206805439C
:1014E00025602068F02188430299496A0143216000
:1014F0006068924901400298006A000208436060F7
:1015000019E02068054325602068F0229043029A84
:10151000526A024322606068884A02400298006A68
:10152000000210436060002905D10298406A00F073
:1015300045FB002854D100F0CFFA8149A26812057A
:10154000120F895CC906C90EC8407E4908607E48F2
:10155000006800F07FFB010028D029E20298C069F2
:10156000002820683ED0012101432160FFF780FF61
:10157000029D06002068800706D4FFF779FF801BD4
:101580000328F7D3032013E22068082101432160D8
:101590002068F0218843696A0143216060686749D7
:1015A0000140286A000208436060029502980078B2
:1015B000C0075DD5A06838210140102909D0A06876
:1015C0003821014018291DD1E0688007800F0328C9
:1015D00018D1206880034BD502984068002847D175
:1015E0000120E5E1012188432060FFF741FF06006B
:1015F000029D20688007D8D5FFF73AFF801B03289B
:10160000F7D3BFE70298416880204002814207D0AB
:10161000A022D202914207D1216882000A432260AF
:1016200021680843206007E02068AB490140216041
:101630002068AA49014021600298406800280BD028
:10164000FFF716FF05002068800311D4FFF710FF95
:10165000401B6528F7D395E7FFF70AFF05002068D0
:10166000800305D5FFF704FF401B6528F7D389E702
:101670000298007880071DD5A0683821014008290C
:1016800009D0A06838210140182924D1E0688007DA
:10169000800F02281FD12068400503D50298C0683A
:1016A00000289DD060688E490140029800690006BC
:1016B000084360600298007800076AD50298406984
:1016C000002856D002988069002878683ED104210D
:1016D000884378603DE00298C0680028206818D0F0
:1016E000A10D01432160FFF7C3FE029D06002068A3
:1016F000400505D4FFF7BCFE801B0328F7D341E764
:1017000060687749014028690006084360600295D7
:10171000D0E7A84901402160FFF7AAFE0600029D1C
:1017200020684005F3D5FFF7A3FE801B0328F7D3FD
:1017300028E700BF0010024090100240FF00FFFFAA
:1017400050690008540200202802002004210143AF
:1017500079607868012101437960FFF789FE05000F
:101760007868800715D4FFF783FE401B1228F7D353
:1017700008E77868012188437860FFF779FE050063
:101780007868800705D5FFF773FE401B1228F7D352
:10179000F8E602980078400700D484E0002000902A
:1017A00080204005A16D014008D1A16D0143A165D4
:1017B000A16D084000900098012000907E480068CC
:1017C000C00512D47C480068A10D01437A4801602D
:1017D000FFF74EFE050078480068C00505D4FFF706
:1017E00047FE401B0328F6D3CCE60298806801220E
:1017F000104209D004210840386802D00143396002
:10180000386802433A6006E03868904338603868C8
:101810000421884338600298806800282CD0FFF7A4
:1018200027FE05003868800706D4FFF721FE401B1D
:10183000A6498842F6D3A5E680200299896801402E
:101840000CD03968084338603868000524D4FFF7A5
:101850000FFE401B9D498842F6D393E638688021ED
:10186000884338603868000516D5FFF701FE401B35
:1018700096498842F6D385E6FFF7FAFD05003868F9
:10188000800706D5FFF7F4FD401B90498842F6D348
:1018900078E638680006E1D40098002803D0A06DEF
:1018A0008B490140A16502980078800629D50298ED
:1018B000806A0028B86815D001210143B960FFF79C
:1018C000D7FD0500B86880071BD4FFF7D1FD401B8A
:1018D0000328F7D356E600BFFFFFFEFFFFFFFBFF25
:1018E000FFFFFF8001218843B860FFF7C1FD0500BD
:1018F000B868800705D5FFF7BBFD401B0328F7D369
:1019000040E60298C06A002851D0A16838220A40F7
:10191000182A00D164E66F490228206837D10140B7
:101920002160FFF7A5FD029D06002068800105D516
:10193000FFF79EFD801B0328F7D323E6E068964956
:101940000140286B0843696B0143A86B0002084300
:10195000296C0143686C0843E96B0143E160E0686E
:10196000802149050143E160206880214904014349
:101970002160FFF77DFD8025AD040600206828402A
:1019800015D1FFF775FD801B0328F7D3FAE5014059
:101990002160FFF76DFD8026B60405002068304009
:1019A00005D0FFF765FD401B0328F7D3EAE50020CB
:1019B00003B0F0BDFFFEFFFF00700040F2B582B043
:1019C0000724764909682140029A91420AD2734954
:1019D0000A68A243029B13430B6009682140029AE4
:1019E000914256D106006E4D3078C00738D57068E8
:1019F000032802D1296889010DE0022802D1296853
:101A0000890308E0002802D12968890703E001283A
:101A100003D1296849050BD43BE06249022204281E
:101A200003D149680A4003D133E009680A4030D045
:101A3000A968A1430843A860FFF71AFD2349009154
:101A40000700A868382101407068C000814207D0B3
:101A5000FFF70EFDC01B00998842F2D3032032E04D
:101A60003078800705D5A8684F490140B068084321
:101A7000A8604A4802990268224091420BD201684C
:101A8000A143029A0A43026000680440029884421B
:101A900001D0012017E03078400705D5A8684349F8
:101AA0000140F0680843A86000F016F84049AA68B1
:101AB0001205120F895CC906C90EC8403D4908606D
:101AC000032000F0C7F803B0F0BD00008913000048
:101AD000FFFFFFEFFFFFFFFE30B500210020304B7E
:101AE0009C68382222400324DD682540002A03D068
:101AF000182A13D1012D25D10F211D682D0703D4DC
:101B00004C4D2D682D0A01E01D682D0929404A4DD4
:101B100089006958002A13D1080030BD082A01D174
:101B2000464830BD102A01D1454830BD202A02D197
:101B3000FA20C00130BD282A1FD18020000230BD0C
:101B4000182A1AD1D868DA685206520F521C04407B
:101B5000022C02D0032C02D002E0384900E03849C0
:101B6000D868DC684004400E414308001100FEF7CD
:101B700021FF610F491CFEF71DFF30BD0D480068B5
:101B800030490D4A12685204520F895CC906C90EC9
:101B9000C8407047000000008C80C1110020024046
:101BA0000010024090100240FFF0FFFFFF8FFFFF88
:101BB00050690008540200200810024070B582B03D
:101BC0000400002580204005204E3168014002D0ED
:101BD00000F097F80CE0316801433160316808404B
:101BE0000090009800F08DF83168194A0A40326080
:101BF000710D884206D1802C0BD9B12C04D2912CC6
:101C000007D305E0802C01D3022502E0702C00D11F
:101C100001250D48016807229143294301600068AE
:101C20004007400FA84201D0012000E0002002B090
:101C300070BD000094100240D06900080024F40038
:101C400000093D00D46A00080020024058100240FC
:101C5000FFFFFFEF70B5060000240F4DA9680029B3
:101C600016D0FA208000FEF7A5FE01000B480068A0
:101C7000FEF7A0FE00F00AF9002809D1042E07D2D1
:101C8000002231000020C04300F0E4F86E6000E064
:101C90000124200070BD00BF240200205402002057
:101CA00010B5C021C900284C620D90421DD120689A
:101CB0000140914223D02068264901400A43226016
:101CC00022480068322148432149FEF773FE401C38
:101CD000210D00E0401E62690A4001D00028F9D1C0
:101CE000606901400BD0032010BD500022681140F4
:101CF000814204D02168174A0A4010432060002026
:101D000010BD11480168C020C000084070470E494E
:101D10000A68114B13400B600A6807239A43022399
:101D200013430B6035490A68042313430B600128F1
:101D300001D130BF02E040BF20BF20BF08680422AD
:101D4000904308607047000000700040540200207B
:101D500040420F00FFF9FFFFFFBFFFFFF0B581B06A
:101D60002B4C2A4F3868C0070FD580256D0220689C
:101D7000284003D000F0AEF8256065606068284018
:101D800003D000F0A7F82560656080256D033868F2
:101D9000C0060DD52068284003D000F09CF82560CF
:101DA00065606068284003D000F095F825606560A4
:101DB000386880060ED56E002068304003D000F0F1
:101DC0008BF8256065606068284003D000F084F8D7
:101DD00026606660386840060ED5AE002068304048
:101DE00003D000F07AF8266066606068054003D092
:101DF00000F073F82660666001B0F0BD10ED00E001
:101E000004480168420D0A430260704704700040B4
:101E10000C1802400870004010B4C2001823134090
:101E2000FF249C40E2438907090E9940030004D433
:101E300021489B089B00C01806E0204B0007000FBC
:101E4000083880088000181803681A4011430160A0
:101E500010BC704700B581B0FFF7DEFF01B000BDD8
:101E6000010005D40121C006C00E81401448016064
:101E70007047010009D40121C006C00E81401148FD
:101E80000160BFF34F8FBFF36F8F7047401E0E4945
:101E9000884201D9012070470C4948600C4802680B
:101EA0001202120AC0231B0613430360002088603D
:101EB00007220A607047000000E400E01CED00E02B
:101EC00000E100E080E100E0FFFFFF0010E000E043
:101ED00020ED00E07047704770477047F0B5ABB039
:101EE000554C56486060F0208003E0600C20206173
:101EF000402060610027A761E762000220636763FA
:101F0000C0200004A060A76280204001E061276239
:101F10001020606214220021684600F0BBFB4C22B6
:101F2000002117A800F0B6FB4422002106A800F00B
:101F3000B1FB434D80204005E9680143E960E96851
:101F4000084005900598042617962297812019903D
:101F500017A8FFF793FA002800D0FEE77003069059
:101F6000C009169006A800F09FFB012029680143D4
:101F700029602968084005900598022029680143D6
:101F80002960296801400591059929683143296034
:101F900029680E400596059908212A680A432A6097
:101FA0002A6811400591059910212A680A432A6080
:101FB0002A68114005910599E021C900009101901E
:101FC0000297032003900B2004906946A020C005CF
:101FD00000F0A0FC1B48009069461B4800F09AFCEA
:101FE0001A48009069461A4800F094FC194800907D
:101FF0006946194800F08EFCE02080000090694698
:10200000164800F087FC022000F002FE680DE96827
:102010000143E960E9680840009000986068016841
:10202000AA0D0A430260201D00F008FE201D00F0EA
:10203000BEFE2BB0F0BD0000D40100200024004003
:102040004C10024002CA000000040050780F00004B
:10205000000800507B330000000C005000100050BE
:1020600030B581B00025040007E0EBB2002200216A
:10207000200000F09BF8641C6D1C2078002802D022
:10208000E8B20628F1DB454800F0C8FE01B030BDDB
:10209000F0B581B0002600246A461670F0273F0292
:1020A00005000BE0E3B20022002102E0E3B20122CE
:1020B0000021684600F07AF8AD1C641C28880028CE
:1020C00011D0E1B206290EDA694608702888384036
:1020D0008021C9018842E9D049008842E2D1E3B2B7
:1020E00000220121E5E72E4C2E48008897282BDBA3
:1020F0002D480078002827D02078002804D101231B
:102100000122D24307210CE0012804D1012301223E
:10211000D243052105E0022807D180235B051E4A32
:102120000621201D00F008FE0AE0032808D18023C4
:102130005B05194A0421201D00F0FEFDFF202070E0
:102140002078401C207021E0607800281DD10125F6
:10215000ED4301232A000721201D00F0EDFD01239E
:102160002A000521201D00F0E7FD0B4EF5432B0052
:1021700032000621201D00F0DFFD2B00320004217B
:10218000201D00F0D9FD6678761C6670201D00F0D9
:1021900045FE01B0F0BD0000FFFFFFEFD8010020B9
:1021A000D4010020AA03002024010020F0B581B052
:1021B0000025007804002600203E52D0761F24D04F
:1021C000F61E39D0761E35D0761E37D0761E22D038
:1021D000B61E22D0B61E1CD0761E092E0ED9323E57
:1021E00021D0B61E23D0093E1FD0761E19D0423E04
:1021F0000DD0761F13D04A3E05D021E0C34C4000DD
:10220000201860382CE0C24D2BE0B32510E0EC25FF
:102210000EE0C02525E0BF4D23E0A02508E0BE4D1F
:102220001FE0BE4D1DE0BB2502E0BD4D19E0F325CA
:102230002D0216E0112514E0282512E0B94D10E01A
:102240002600413E1A2E04D2B74D4600AD19823DFC
:102250002D88613C1A2C04D2B34C40002018C2389F
:102260000588012902D1280002250543012A02D14F
:1022700028002025054329000F22AC4C280B2064A0
:102280000D12154065640D111540A5640A40E26405
:10229000052B00D9EBE102A15B00C95A8F4400BFB6
:1022A0000C00B2005801AC01900222038005C0234B
:1022B0001B040340EF4A0021201D00F03DFD206C6F
:1022C000ED4F8026B602802541012940830333402B
:1022D0000B433A000121201D00F02EFD606C8005AB
:1022E000C0231B040340E34A0221201D00F024FD0B
:1022F000606C41012940830333400B433A000321C2
:10230000201D00F019FDA06C8005C0231B040340B4
:10231000D84A0421201D00F00FFDA06C4101294086
:10232000830333400B433A000521201D00F004FDD8
:10233000E06C8005C0231B040340CE4A0621201D0B
:1023400000F0FAFCE06C41010D40800306402E4392
:1023500087E18301402003404022D2430021201D19
:1023600000F0EAFC206CC54F60268025AD0101031A
:102370002940C30033400B433A000121201D00F0E7
:10238000DBFC606C8301402003404022D2430221E9
:10239000201D00F0D1FC606C01032940C3003340D4
:1023A0000B433A000321201D00F0C6FCA06C830102
:1023B000402003404022D2430421201D00F0BCFCF9
:1023C000A06C01032940C30033400B433A000521B0
:1023D000201D00F0B1FCE06C83014020034040224E
:1023E000D2430621201D00F0A7FCE06C01030D4044
:1023F000C00006402E4334E1A14F1826F5028103A8
:102400002940430033400B433A000121201D00F0D6
:1024100093FC606C81032940430033400B433A0036
:102420000321201D00F088FCA06C8103294043009B
:1024300033400B433A000521201D00F07DFCE06C89
:1024400081030D40400006402E430AE1C102802274
:10245000120111404303D00003400B43894A00217D
:10246000201D00F069FC206C874F80267602042531
:1024700041082940830333400B433A000121201DCA
:1024800000F05AFC616CC8026A0210404B03D10094
:102490000B4003437B4A0221201D00F04DFC606C81
:1024A00041082940830333400B433A000321201D98
:1024B00000F042FCA16CC8026A0210404B03D1003C
:1024C0000B4003436F4A0421201D00F035FCA06C33
:1024D00041082940830333400B433A000521201D66
:1024E00000F02AFCE16CC8026A0210404B03D100E4
:1024F0000B400343634A0621201D00F01DFCE06CE5
:1025000041080D40800306402E43AAE0B06A00084F
:10251000DDFF000014A00000846000001022000015
:1025200010B20000DDA000009C690008D40100206A
:10253000030680273F053E0BF502C106AA001140A5
:102540002A001A400A43C003304010433B40034373
:102550004E4A0021201D00F0EFFB606C0306C1060F
:10256000AA0011402A001A400A43C0033040104319
:102570003B400343454A0221201D00F0DDFBA06CD7
:102580000306C106AA0011402A001A400A43C003EC
:10259000304010433B4003433C4A0421201D00F0DF
:1025A000CBFBE16C0806CA06AB001A400540154398
:1025B000C9030E402E43074037433B00334A0621F0
:1025C00052E08025AD0541072940430568090340D5
:1025D0000B432F4A0021201D00F0AEFB0327FF43D1
:1025E0000326206C430833403A000121201D00F0EF
:1025F000A3FB606C410729404305680903400B4376
:10260000234A0221201D00F097FB606C43083340F1
:102610003A000321201D00F08FFBA06C41072940E8
:102620004305680903400B43194A0421201D00F0AB
:1026300083FBA06C430833403A000521201D00F0C5
:102640007BFBE06C41070D404305802040040340C4
:102650002B430F4A0621201D00F06EFBE06C400862
:10266000064033003A000721201D00F065FB01B051
:10267000F0BD00BFFFFF3FFF7FFFFDFF9FDFFFFFBC
:10268000E73FFFFFFFB7FFFFFBFFFEFFFF7FFFE31B
:10269000FFFFFFDE10B5040008001100020020005B
:1026A00000F0EAFB200010BDF0B583B0040000206C
:1026B0006A461070874D2168090454D50190802026
:1026C0004005E96C014008D1E96C0143E964E96C1B
:1026D000084001900198012001907F4F3868A90DB2
:1026E00001433960FEF7C4FE06003868C00508D40F
:1026F000FEF7BEFE801B0328F7D30320694608704F
:102700002AE0764F3968C020800008400FD0216C45
:1027100088420CD0396872480840396880225202D9
:102720000A433A6039686F4A0A403A603860C00725
:102730000CD5FEF79DFE06003868800706D4FEF72C
:1027400097FE801B68498842F6D3D6E7386864490B
:102750000140206C084338600198002803D0E86CE1
:1027600062490140E9642078C00705D5E86F03217C
:10277000884361680143E9672078800705D5E86FE1
:102780000C218843A1680143E9672078C00605D57C
:10279000E86F5749014060690843E86720780007FF
:1027A00005D5E86F4E49014020690843E867207865
:1027B000400705D5E86FC0218843E1680143E96718
:1027C0002078800605D5E86F4A490140A069084392
:1027D000E8672078400605D5E86F47490140E06981
:1027E0000843E8672078000605D5E86F43490140B3
:1027F000206A0843E8672068C00505D5E86F4049AE
:102800000140606A0843E8672068800505D5E86FE5
:102810003C490140A06A0843E867206840040ED59F
:10282000E06B80214905884203D12868090B0143E8
:102830002960E86F34490140E06B0843E86720688D
:10284000C0040ED5606B80210905884203D1286839
:10285000C90801432960E86F2C490140606B0843B7
:10286000E867206880040ED5A06B802109058842A6
:1028700003D12868C90801432960E86F2349014052
:10288000A06B0843E867206840050DD58020400410
:10289000E16A814202D1296808432860E86F1C4937
:1028A0000140E06A0843E867206800050ED5206B08
:1028B00080218904884203D128684908014329609E
:1028C000E86F13490140206B0843E86768460078C9
:1028D00003B0F0BD0C1002400070004090100240A8
:1028E000FFFCFFFFFFFFFEFF89130000FFFFFFEF6C
:1028F000FFF3FFFFFFCFFFFFFFFFFCFFFFFFF3FF33
:10290000FFFFCFFFFFFF3FFFFFFFFFCFFFFFFFF303
:10291000FFFFFFFEF0B484B000220F2302930B6888
:10292000002B00D1B3E0012595400B682B4000D16E
:10293000A8E054000327A740FE4301964E68B7075E
:10294000BF0F012F03D0B607B60F022E0ED1876836
:10295000019E3E40CF68A740374387604668AE433C
:102960004D68EF06FF0F9740374347600D79AD077D
:10297000AD0F032D25D0C7680325019E3E408F680B
:10298000A7403743C7604E683540022D19D1D5089E
:10299000AD0045192E6A039697001C263E406F46EF
:1029A0003E70039EB446029F6E463678B740664638
:1029B000BE43B4460F696E463678B7406646374325
:1029C0002F6207680326019D3D404F683740BC4693
:1029D00027006446BC402C4304604C683504254005
:1029E00050D0824C9508AD0064190094009C246876
:1029F000D70018253D40029FAF40BC43A027FF05EC
:102A0000B84201D1002617E0794FB84201D1012622
:102A100012E0784FB84201D102260DE0764FB8425D
:102A20000AD0764EB04201D1042605E0744EB04281
:102A300001D1052600E00626AE402643009C266014
:102A4000704C2568DC4325404E68F60200D51D43D6
:102A50006C4E3560756825404F68BF0200D51D4338
:102A60007560694D6E6826404D68AD0300D51E4304
:102A7000654D6E602E6834404E68F60301D52343E1
:102A80001C002C60521C0B68D34000D04BE704B0F4
:102A9000F0BC7047F0B485B002005B48009000299C
:102AA00000D17EE00491002301249C400394049C07
:102AB000039D25400295029C002C6ED04B4C9D0836
:102AC000AD0064190194019C26680F24DD001827CD
:102AD0002F40BC402640A025ED05AA4201D1002789
:102AE00019E0434DAA4201D1012714E0414DAA4209
:102AF00001D102270FE0404DAA4201D103270AE08D
:102B00003E4DAA4201D1042705E03D4DAA4201D124
:102B1000052700E00627BC46DF0018253D40674634
:102B2000AF40BE421AD1029EF543009E36682E4049
:102B3000009F3E60009E76682E40009F7E60314E72
:102B400076682E402F4F7E603E46366835403E46C2
:102B50003560019D2D68A543019C256003245D001F
:102B6000AC4001941468019D25431560DC08A40065
:102B70001419256A9F001C263E400F27B740BD430D
:102B80002562019DEC439568254095605568039E3C
:102B9000B5435560D5682C40D4605B1C049CDC4078
:102BA00082D105B0F0BC704700690840401E8041EA
:102BB000C043C00F7047002A01D081617047816215
:102BC000704770B504002500104E3068284003D0CF
:102BD0003560200000F079F97068284003D07560F6
:102BE000200000F02BFC70BD0000000060180240C7
:102BF0000004005000080050000C0050001000506D
:102C00000014005000180240801802400C180240C6
:102C100030B581B00500FEF72BFC04000020C04356
:102C2000854202D0044880682D18FEF721FC001B65
:102C3000A842FAD301B030BD24020020F0B581B023
:102C4000040002D1012001B0F0BD3520205C002835
:102C500004D134216054200000F004FC022035210E
:102C600060542068016801229143016000202168BE
:102C70004861216888612168C8612168086221680B
:102C80004862216888622168C862216808632068F8
:102C90004168774A0A4061681143A2680A43A16A01
:102CA0001143E26A0A43E1691143226A0A43A169B6
:102CB0001143626A0A434260200000F0BFF801003D
:102CC000C1D120680168FE229143E2680A4321696C
:102CD000114362690A43216B114301602068016856
:102CE00001220A430260FEF7C3FB0700614D012683
:102CF00020688068304008D1FEF7BAFBC01BA842AC
:102D0000F6D30820A06303209DE7FEF7B1FB0090F7
:102D1000102520688068284008D1FEF7A9FB00999B
:102D2000401A54498842F4D3A563ECE70020A0631D
:102D300035202654002086E7FEB505003520285CA6
:102D4000012801D002282FD13520285C01281FD16D
:102D50003420285C012801D1022026E00120342102
:102D60006854022435216C54FEF782FB04270600C8
:102D70002868806838400BD0FEF77AFB801B3D49FD
:102D80008842F5D3AC6300203421685403200CE062
:102D9000029A019900982B6880001818436919401D
:102DA0000A434261002000E0012003B0F0BDF0B50D
:102DB00081B00500012101203522AA5C012A01D041
:102DC000022A29D13420285C012801D1022023E0E5
:102DD00034202954022435216C54FEF749FB254F39
:102DE00006002868806840070AD5FEF741FB801B73
:102DF000B842F6D3AC6300203421685403200BE0C2
:102E000000210022102328000468A4186161121D0B
:102E10005B1EF9D100F002F801B0F0BD0821026894
:102E2000D16001688A68042313438B600121352235
:102E3000815400213422815400207047F0B581B0C4
:102E40000600FEF715FB0B4C202507003068806854
:102E5000284009D1FEF70CFBC01BA042F6D301208D
:102E6000B063032001B0F0BD0020FBE700000000CC
:102E70000E0000FCE90300001206130A1A43130CAB
:102E80001A4300BF094205D0830707D00270401CD7
:102E9000491EF9D1704700000022FFE713001039E6
:102EA00006D330B41400150010393CC0FCD230BC3D
:102EB000490700D30CC000D504C0890002D30280AA
:102EC000801C002900D502707047704700B581B0A2
:102ED00000F0C0F8A94800210160416000F0CAFA82
:102EE00000F0FCFAFEF78CFFA54800680105C90F49
:102EF000A448017006D000F0C3F800F011FB0120D7
:102F0000FEF705FF01B000BD30B581B09E4C2078C2
:102F1000092800D987E002A1095C49008F4400BF5D
:102F20000507102D3A4458657B8701207AE09448C4
:102F300000680105C90F01D1022073E0092071E08A
:102F400000F0C9F8AC480078002814D06078AB4D88
:102F50002A78521E904201DB002000E0401C607085
:102F600000F0B9F860782A78521E904201DB002008
:102F700000E0401C6070032054E000F0E7F89E4839
:102F80000078002804D06089972801DB042049E0FC
:102F9000062047E0622000F0CDFA994801789A486F
:102FA00000F01CFC05203DE000F02AFC00F0B8FA1F
:102FB0000120FEF7ACFE00F02BFC924801780029BE
:102FC00031D000210170642000F0B4FA092029E01A
:102FD000E078401E8041C00FA178CA07D20F02429C
:102FE00001D007201EE009201CE06078012801D1F3
:102FF00014A000E015A0FFF733F860787F4A12783C
:10300000521E904201DB002000E0401C6070012055
:10301000E070092006E0A078002803D0E0780028BE
:1030200003D10720207001B030BD0920FAE700F07D
:10303000E7FB00F075FA0120FEF769FE00F0E8FBFF
:103040000820EFE74C4947485420000054454D50B4
:103050002020000000B581B08020400582490A6828
:1030600002430A600968084000900098002201218C
:103070000120FEF7EFFE0120FEF7F2FE01B000BDD9
:1030800000B581B07948016804220A4302603B48D8
:103090000C2101608749416000F0ECF900F01EFA54
:1030A00001B000BD00B581B034480021016041602D
:1030B00000F0E0F900F012FA01B000BD00B581B0F7
:1030C00000F09EFB00F02CFA0120FEF720FE00F03D
:1030D0009FFB01B000BD10B52B4C77486178C9004B
:1030E0004058012802D003281CD010BD00F04EF833
:1030F00020812089C0027149FDF75CFC2081218973
:10310000FA20800048436E49FDF754FC2061206995
:103110004100081860813C48618901706189090A91
:10312000417010BD220014320121002000F017FC74
:103130006169644800F040FC00F096FCA0813249CF
:1031400088700204120ECA70E08010BD00B581B014
:103150000D4859494278D20089184968022902D09D
:10316000032904D006E0408900F050F802E0C0884E
:1031700000F07EF801B000BD00000000E003002078
:103180001470004025010020A0030020F0B581B09C
:10319000002400264C4F380000F084FC002801D0A9
:1031A00000F0B2FE00220121A020C005FFF703FDC0
:1031B000A14D380000F0CAFF002801D000F0A4FEA5
:1031C0000121380000F0F2FF380001F065F8288096
:1031D0000F2E01D328882418761CAD1C142EE8D39A
:1031E00001220121A020C005FFF7E5FC20000521F8
:1031F000FDF7E0FB01B0F0BD2401002058020020E3
:1032000000000020210000200400002010B5904C98
:10321000FA22920090420FD2504301F01DFA210091
:1032200000F054F82088302814D1202061883029FB
:1032300000D1608020800DE06421484301F00CFA49
:10324000210000F043F86B20A08020888021090233
:10325000014321806C20E0807520208178206081EE
:103260002000FEF715FF10BD581002401800014065
:1032700010B50200774C6420504301F0FDF92100A5
:1032800000F024F843206081B020208161888020F4
:10329000000208432188302901D0608006E02080A8
:1032A000A0886080E088A0802020E0802000FEF7D9
:1032B000EFFE10BD02000100B0000020FF0F000073
:1032C000980800000000C842C0000020F2B584B099
:1032D00001F0DEF904006049FDF76CFB5E494843EC
:1032E000261A5E4D30002946FDF764FB6843371A05
:1032F000FA26B60038003146FDF75CFB70433F1AF2
:1033000038006421FDF756FB64214843381A070052
:103310000A21FDF74FFB810008184000381A80B2DF
:1033200001900198201A0A21FDF744FB0700294665
:10333000FDF740FB68433D1A28003146FDF73AFB94
:1033400070432D1A28006421FDF734FB64214843A3
:10335000281A05000A21FDF72DFB810008184000FE
:103360002D1AADB2601B0199401A6421FDF722FBB2
:1033700007003146FDF71EFB70433E1A3000642102
:10338000FDF718FB64214843301A06000A21FDF7B7
:1033900011FB810008184000361AB6B2A01B401B72
:1033A0000199401AFA218900FDF704FB0700642106
:1033B000FDF700FB64214843381A07000A21FDF796
:1033C000F9FA8100081840003F1ABFB2E01B801BC9
:1033D000401B0199401A2149FDF7ECFA0290009038
:1033E00002980A21FDF7E6FA8100091849000098C1
:1033F000401A01993031049A518129003031049AE0
:10340000118131003031049AD18039003031049A71
:10341000918001003031049A518080B2201AC01B83
:10342000801B401B0199401A0B49FDF7C3FA30304D
:103430000499088005B0F0BD7803002001200849F8
:1034400088707047064800218170C1707047000085
:10345000C8030020D4030020A0860100102700002C
:10346000A00300207047FEE71F480168820D0A4351
:103470000260704710B41D490A680E239A4303681E
:1034800013430B601A491B4B4A681A404A600A688A
:103490001A400A60184A54681C405460146823405B
:1034A000136080235B0244681C4002D00C681C43FC
:1034B0000C604468A40302D54C681C434C6001793D
:1034C000C90702D51168194311600079800702D538
:1034D000506803435360002010BC704703480168E4
:1034E00001220A43026070470070004004700040EF
:1034F00080180240FFFFFEFF0018024010B50024B4
:103500000A480168820D0A4302600320FEF7A2FB0D
:10351000002801D0012401E001F0CEF8200010BD08
:103520000348016802229143016070470020024075
:103530000458014000B581B0FDF706FB0149087051
:1035400001B000BDEC03002000B581B000F005F82B
:103550006420FFF7EFFF01B000BD10B582B001F0AD
:1035600052F9FDF7ADFA002800D0FEE701F096F918
:1035700001F09EF9414C2000743001F0A6F92000C2
:103580002830E0662000783001F0CAF920007C3055
:10359000FCF798FE0020FDF74FF901F035FA0028FE
:1035A00004D100210720FDF763F907E025206946D3
:1035B00008706A4601215A20FDF78FFA0720FDF7AF
:1035C0006CF9E06E00698047E06EC06A8047592060
:1035D000C04301F01FFA02B010BDF0B581B0070082
:1035E0000026264C20002830E0662000903001F0B4
:1035F000DFFA2E4DF87828703879002820D0B86886
:10360000805D691C8855761CF6B23879864217DAD7
:10361000B868805D8855761CF6B2387986420FDA34
:10362000B868805D8855761CF6B23879864207DA2C
:10363000B868805D8855761CF6B238798642DEDB44
:10364000761C002001F07CF9E06EC0698047F0B282
:10365000E16E496988476048E16E896A884701F0F0
:10366000C6F94420E16E89698847F1B22800E26E0C
:10367000D26B904701B0F0BD0000000008000020B0
:1036800010B50B4C2000203001F09CF901202021C6
:10369000615C8908014200D0607610BD00B581B040
:1036A000544801F0F5F901B000BD0000C00200204F
:1036B0000800002000B581B001F0B5FA01B000BDEE
:1036C00000B581B001F0EEFA01B000BD00B581B0E7
:1036D0000121042001F04CF901B000BD00B581B01A
:1036E0000121012001F044F90121022001F040F9FB
:1036F0000121080701F03CF901B000BD00B581B01F
:10370000002101F0DBFA04D1002001F044FB0F207E
:1037100008E001F081FB002001F08CF9012001F0AC
:10372000A0F9062001F048FB01B000BD00B581B052
:10373000002001F07FF9012001F093F901B000BDF4
:1037400000B581B02C4800784008302802D16720AD
:10375000FFF7F0FE9020694608706A460121762046
:10376000FDF7BBF9032001F065FB6120FFF7E2FEE6
:1037700001B000BD30B581B005000C0001F05CFB6C
:1037800020702900FDF710FA7120FFF7D3FE01B079
:1037900030BD30B581B005000C00174800784008F6
:1037A000302802D16720FFF7C5FE7220FFF7C2FE66
:1037B00029002000FDF7E2F99C20694608706A465E
:1037C00001217620FDF789F9022001F033FB60200A
:1037D000FFF7B0FE01B030BD0000FA4400B581B083
:1037E000020006489923C37082600171FFF7F5FE5D
:1037F00001B000BDA0000020EC0300200800002064
:1038000002480168022291430160704710E000E025
:103810000248016802220A430260704710E000E09B
:10382000F0B597B00E0000240394002800D07FE08C
:10383000012006907F2004A9087357480490574838
:103840000590574809905748089057480A90574D97
:1038500028002C3001F000FB00283AD169462800EE
:103860002C3001F062FB002833D168460078A02894
:103870002FD101960CA928002C3001F068FB0CAE6A
:103880003078717849000143B07880000843A8621D
:1038900028002C3068614649696201270198384048
:1038A00002900AD03078012807D14248A861280048
:1038B0002C300968884700280BD101980421084062
:1038C000009002D0B078012803D002260198304041
:1038D00001D000202AE012A968696A6AD26890477C
:1038E000002801D0062021E012A80178012900D18A
:1038F00001248178012902D1210004240C4340785D
:10390000012802D12000022404430298012813D187
:103910002740012F10D16869290018316A68920088
:10392000895809688847002806D00420C04314E05D
:103930000120C04303900FE0009804280CD10440FC
:10394000042C09D16869290018312A699200895824
:10395000096888470028E8D1039817B0F0BD00B582
:1039600081B00B001100002810D1104A906A184055
:1039700098420BD150699B00D3589B00D218926992
:1039800012699047002803D0042000E00120C043C2
:1039900001B000BD00000000755800081F59000864
:1039A000B3590008615900086D5B000870010020E0
:1039B000300200204002002030B405004D400122BA
:1039C000D20715404B180418240E2ED01B0E32D0EF
:1039D000FF2C34D0FF2B3AD0E41800020902104328
:1039E0001143000A090A9446C2B24A43000AC3B20C
:1039F0004B43000A4843110A5B181A43D2B2190A12
:103A0000091801D44918641E080A7F3C23DBFE2CE8
:103A100008DAE405090611436346994160412843E9
:103A200030BC7047FF20C005F9E728001B0EFF2BB4
:103A3000F6D1D043F4E72800FF2CF1D1F9E740029A
:103A4000F7D1FF2B01D14902F3D1E005E7E7D80513
:103A50004902E4D0EDE743020020641CDFD15B1291
:103A60009B1CDCD9D805DAE70122D2070118090E20
:103A70007F3910D449421F310FD4001805D2C0013C
:103A80001043C84000D5D0437047C0011043C84020
:103A900005D440427047002070470042F3D5100023
:103AA0007047FEE7F0B585B0050000200090542077
:103AB000285C012801D10220C6E0012454216C5465
:103AC000280000F08BFD6946087128688168214054
:103AD00000D0ACE02900543149685C4A0A40022118
:103AE00011432A0054325160C168594A0A40049275
:103AF000C168584A0A40C260002002900021082292
:103B00002B689F68544E3E4080273F0637439F6096
:103B10002E68AE239B020395B568ED0F11D0009D72
:103B20006D1C0095009D9D42F6D30398543041686A
:103B30000222914310220A4342600299017001203F
:103B400082E0039DB423F3585B065B0EC018491C4A
:103B5000521ED5D1FCF72EFF3F49B2680A402243DE
:103B6000B2602A6813699B0F9B072BD13B4B1E68E1
:103B7000F0239B033340E0267603B34222D39B0C11
:103B8000DB1E01269E400096009B5B080093009B75
:103B9000002B17D0009B5B1E0093009B002B11D0C5
:103BA000009B5B1E0093009B002B0BD0009B5B1EB9
:103BB0000093009B002B05D0009B5B1E0093009B95
:103BC000002BE7D1B43213687F26B343184310604B
:103BD00028688268114002220A438260FDF748FC8F
:103BE000049E070028688168214013D0FDF740FC3F
:103BF000C01B0228F6D9286880682040F2D028002F
:103C00005430416810220A43426081680C4384604A
:103C1000012019E0C1680E43C66028005430406896
:103C200002218843044328005430446007E0280000
:103C30005430406810210143280054304160002076
:103C4000542168546846007905B0F0BDFFFEFFFFBF
:103C500003800000FC7FFFFFE8FFFF7F0827014093
:103C600000B581B0FFF732F900F03FF8FFF74CF9EB
:103C7000FCE710B598B04C2104A8FFF70DF9684691
:103C800000210022002300241EC08020C000FEF777
:103C900007F8FFF7E9FB9248016818229143016099
:103CA000042004908120069004981021014304917F
:103CB00001200B9012200C9080200D900F9404A8EE
:103CC000FDF7DCFB002801D000F01EF90720009072
:103CD00001940294039400216846FDF76FFE0028CA
:103CE00001D000F011F918B010BDF0B593B0FFF796
:103CF00005FCFFF7BEFF01210020FFF791FDFEF755
:103D0000EDF868460021002200230EC006C00426FC
:103D1000744D286830432860286830400590059825
:103D20000820296801432960296808400590059802
:103D30000096002401940294039469466A48FEF7B1
:103D4000E9FD012728683843286028683840059035
:103D50000598A025ED05012201212800FEF72BFF83
:103D60000097112001900294039469462800FEF701
:103D7000D1FD0096C42080030190029769465B48FC
:103D8000FEF7C8FD002202210620FEF763F8062098
:103D9000FEF766F868460021002200230EC0544D4D
:103DA00054482860C02000066860AC60EC602C615C
:103DB0006E612C83AC76EF6120216C546C62AC6236
:103DC0002C216C542C636C630720A8633C216C5439
:103DD000EC64280000F09AF8002801D000F094F874
:103DE000454800900194454802906946280000F03B
:103DF00056FA002801D000F087F82E00643604211E
:103E00003948FEF7D1FE30706420285C002802D0CB
:103E1000FFF79AFB03E004213348FEF73BFE70787E
:103E2000002803D0FFF74AF9FFF73CF901A8002169
:103E3000002200230EC006C068460160302106A89B
:103E4000FFF72AF82E487060B4607F20F060FF20F2
:103E500030617461B461F461B80730627462B46255
:103E60002800683001F08AF9002801D000F04CF8F1
:103E700001A80480847004940594012201A92800FB
:103E8000683001F007FA002801D000F03DF86846DC
:103E9000077047708770C470012269462800683037
:103EA00001F0DAFA002801D000F02EF806A804800C
:103EB0008470079713490B91FC2189050C910E948E
:103EC00024214754DC31C162012206A92800683050
:103ED00001F09AFB002801D000F016F813B0F0BDF5
:103EE000901002404C100240000C0050000800509E
:103EF000C0000020002401400200000404FFFF7FF6
:103F0000002800408080808072B6FEE7F0B583B064
:103F10000500002600200090002D01D101200CE1B9
:103F20002C0054346068002805D1280000F0D9FB2B
:103F30000020A06020702868816880277F053940B4
:103F400027D181687E4A0A403A4382607D480068F2
:103F50007D49FCF72FFD401C400000900098002890
:103F600017D00098401E00900098002811D00098AB
:103F7000401E0090009800280BD00098401E009032
:103F80000098002805D00098401E00900098002856
:103F9000E7D1296888681022074007D1606810437C
:103FA0006060A06801230343A360012688686368FA
:103FB000134000D0BCE0400700D5B9E06068794B01
:103FC00003400220184360608868C00770D4286BE3
:103FD000002800D0100201902869002802D5430073
:103FE0005B0800E05304A87E6F463870AF68287EF7
:103FF000800338436F7EFF03074368460078400321
:104000003843019F0743E868384303432C20285C6A
:10401000400018432023EB5C012B0FD16B461B782B
:10402000002B03D103001003184307E06368202727
:104030001F436760A36801271F43A7606B6A002BBB
:1040400005D0E0277F001F400743A86A3843CB68AC
:10405000554F1F403843C8606868810F8907E86C76
:1040600008433C21695C012907D1296C0143686C34
:104070000843A96C01430120084329680B69804F5C
:104080001F40384308616868C021090688420FD084
:10409000494288420CD080210906884208D07949DB
:1040A0000F68794B3B40F027BF0307401F430F6069
:1040B000686B29684B690727BB4318434861AB6BA2
:1040C000286841697027B9431B010B434361286984
:1040D000002804D12868816A0F23DB430CE05104D7
:1040E00088420BD12868816A0F21C943EB695B1EA6
:1040F0005B07DB0E9940E3680B43836228684369E2
:104100000220C04301215B075B0F6D6BAB4206D100
:104110000022A26062681040014361600CE06368A5
:10412000184002436260A0680843A060012603E0D3
:104130006068024362600126300003B0F0BD0000F9
:10414000E8FFFF7F54020020400D030070B504001B
:10415000206880680425284021D15420205C012853
:104160001DD02600543601203070200000F0D4F914
:104170000021020011D17268444B1340AA011A4376
:104180007260B1601C2223681A60317021688A68ED
:104190003F4B13401D438D6070BD317070BD0220D8
:1041A00070BD0000FFFEFFFF0102DEFFF0B581B031
:1041B00004000D006069082801D108260CE0206881
:1041C000C068C00707D520005430416820220A4348
:1041D0004260012052E00426FDF74AF907002068FA
:1041E0000168314018D10020C0438542F7D0FDF767
:1041F0003FF9C01B854201D3002DF0D12068006833
:104200003040ECD120005430416804220A4342601F
:1042100000210170032031E0210054314A688023DD
:104220009B0013434B602268D268C0231B011340DC
:104230001DD1A27E002A1AD10068000717D5206878
:104240008268012052070BD4226852680C239A43DB
:1042500023685A604A680F4B13401843486006E0D1
:104260004A68202313434B608A6810438860207E8D
:10427000002802D10C2021680860002001B0F0BDA8
:1042800002FCFF1F08270140FFFFC3FFFEF1FFFFF5
:10429000E8FFFF7FFFFEFFFF0068006C7047F1B58D
:1042A00083B0080000240025009403995422895CFF
:1042B000012901D1022014E1039954310191012215
:1042C0000A70039909688B685B0700D5FFE0039AC1
:1042D0001269436880263606022B00D1C9E0B2423B
:1042E00002D0814EB24206D102688B6A5202520A53
:1042F0001A438A625BE00268560203D15200D20E72
:1043000002921FE01F27560804D07F1E76085241F4
:10431000002EFAD1BA400026170C01D11036120433
:10432000170E01D108361202170F01D1361D1201E6
:10433000970F01D1B61C9200520002D200D4761C15
:10434000761C02961F221F261E406B461E700F23EE
:10435000019EF768BC466E4637780F26BE4067461A
:10436000B743BC46029F6E463678B7406646374331
:10437000019EF76046680096039EF669009FBF089D
:104380007F1CBE4213D30668009F3A406F463A70C6
:104390008F6ABC466A4617780F22BA406746974331
:1043A000B20E13406A46127893403B438B62816899
:1043B0000368039A12681B0256699E4319404B4BCF
:1043C0000B40334353610268002A00D486E048481A
:1043D0000368E02149041940464B9A422FD18022BC
:1043E000120411427AD10368434E1E4031430A43FE
:1043F0000260424800684249FCF7DCFA401C410078
:104400000818800000900098002867D00098401E8F
:1044100000900098002861D00098401E00900098FD
:1044200000285BD00098401E00900098002855D0CE
:104430000098401E0090009800284FD0E6E7314BCE
:104440009A4209D180225204114247D103682A4E70
:104450001E4031430A4338E02B4B9A423ED1802222
:10446000D20311423AD10368234E1E4031430A431E
:104470002BE0B24202D01C4B9A4205D102688B6AF3
:104480005202520A93438B620268002A26D51848CA
:104490000368E02149041940164B9A4204D102688E
:1044A000154B1340194A0EE0164B9A4204D102688C
:1044B000114B1340164A06E0134B9A420ED1026884
:1044C0000D4B1340134A0A401A43026006E001985C
:1044D0004068202101430198416001250198047042
:1044E000280004B0F0BD00000400008000FFFF7F42
:1044F00008270140000800ACFFFF3FFE54020020E7
:10450000400D0300002000B4001000B0FFFF7FFF4B
:10451000FFFFFFFEFFFFBFFFF0B581B005000020E9
:104520000090286881680124214053D18168464A5F
:104530000A4046D1434F8168394021438160434856
:104540000068000221D5424800684249FCF732FA6F
:10455000401C00900098002817D00098401E009042
:104560000098002811D00098401E00900098002864
:104570000BD00098401E00900098002805D00098AD
:10458000401E009000980028E7D1687E012821D0C5
:10459000FCF76EFF06002868006820401AD12868E2
:1045A0008068204004D128688168394021438160B7
:1045B000FCF75EFF801B0328EDD3286800682040CD
:1045C000E9D1A86D10210143A965E86D0443EC65AC
:1045D000012000E0002001B0F0BD000070B5050032
:1045E000286882688168C90729D502210A4026D136
:1045F0000124826805231340012B17D18268114BD7
:10460000134019438160032029680860FCF730FFDC
:10461000060028688068204011D0FCF729FF801B25
:104620000328F6D3286880682040F2D0A86D1021B6
:104630000143A965E86D0443EC65012070BD0020CD
:1046400070BD0000E8FFFF7F1700008008270140D1
:1046500054020020400D03009D2102000AD002D424
:10466000491E9218FCD5C905100A1206524100D302
:10467000012A4841704700009D210200EED55242B8
:10468000F446FFF7EBFF0122D20710436047FEE735
:1046900000180ED2010E7F390BD449421F3105D4C8
:1046A000C0010122D2071043C84070470020401EBD
:1046B000704700207047FEE781B0344801218268CE
:1046C0000A43826082681140009100998021490567
:1046D00002680A430260006801400091009801B03E
:1046E000704710B592B00400442101A8FEF7D4FB36
:1046F0002068274988421DD18020C00101900020F8
:10470000109001A8FDF7D0FF002801D0FFF7FCFBB7
:10471000802040031F490A6802430A600968084074
:1047200000900098002200210C20FDF793FB0C2044
:10473000FDF796FB12B010BD10B592B004004421F5
:1047400001A8FEF7A9FB2068134988421CD1C80BB9
:104750000190C009119001A8FDF7A6FF002801D023
:10476000FFF7D2FB8020C00008490A6802430A60B4
:104770000968084000900098002200210220FDF7FF
:1047800069FB0220FDF76CFB12B010BD581002400F
:10479000002401406010024000280040F0B581B0C4
:1047A00004000F001600564D2868401C28600520A4
:1047B000FDF75FFB00220221A020C005FEF7FBF9F8
:1047C00002222100200001F0ADF9040006D13200E0
:1047D00004D03800010001F0A5F9040001220221F3
:1047E000A020C005FEF7E7F92868002802DD286848
:1047F000401E28602868002802D10520FDF730FB04
:10480000200001B0F0BDF0B58BB03E4801903E48AD
:1048100002903E4803903E48049001A8FCF740F9FE
:10482000364C08202168014321602168084000902F
:1048300000980126069600250895079504270597F8
:1048400005A93448FEF766F82068304320602068E8
:104850003040009000980795089502200590069634
:1048600005A9A020C005FEF755F800220221A020CE
:10487000C005FEF7A0F92068384320602068074093
:10488000009700980596842080030690079505A957
:104890002148FEF73FF800200BB0F0BD00B581B015
:1048A000012204211B48FEF786F9002001B000BD5B
:1048B00000B581B0002204211648FEF77CF90120E2
:1048C000FEF7A6F9002001B000BD30B581B00500AB
:1048D000124CC021C904200001F06EF92A680021A1
:1048E000200001F059F9002200210520FDF7B2FA5D
:1048F0000520FDF7B5FA002001B030BD4C10024094
:10490000E8030020195A0008E35A00089D470008F0
:10491000112C0008000C0050000800505801002025
:1049200000B581B0417882780A4369460A706A46C8
:1049300001210078FCF7D1F83249087001B000BDC0
:1049400010B582B00400042200216846FDF7A2FEE3
:10495000002C04D020006946042201F077F96A4651
:1049600004215020FCF7B9F82649087002B010BDA8
:1049700030B581B005000C006A4604215020FCF7D8
:10498000C7F86846017809064278120489188278C7
:1049900012028918C2788918002C01D1A94301E0BC
:1049A0000D4329000A0E02700A0C42700A0A827036
:1049B000C1706A4604215020FCF78FF81149087035
:1049C00001B030BD10B582B004006A460421FA205F
:1049D000FCF79EF80B4908706846C1782170817811
:1049E00061704178A1700078E07002B010BD00B530
:1049F00081B06A460421FA20FCF78AF80149087060
:104A000001B000BDEC030020014840787047000071
:104A10006401002000B581B09230694608706A4692
:104A200001211820FCF759F80149087001B000BDB8
:104A3000EC03002010B582B004006A460121372043
:104A4000FCF766F868460078C006C00E61010143B5
:104A5000684601706A4601213720FCF73EF802B033
:104A600010BD10B582B004006A4601213720FCF762
:104A70004FF868460078FE2101400C4368460470F8
:104A80006A4601213720FCF728F802B010BDFEE786
:104A9000F0B583B005000027012601F010F90028C9
:104AA00000D00127002001F007F96A4601213A20D1
:104AB000FCF72EF86C4620780121014321706A46EC
:104AC00001213A20FCF709F8A87880002988090A12
:104AD0000143217028886070E87AC000A070697A6C
:104AE000012902D180210143A170E21C01212E2065
:104AF000FCF70EF8E0780007000FE070221D02219D
:104B00002F20FCF705F82079297A012901D10143EA
:104B100001E0FE21014021712079F921014021713C
:104B2000607913210140A87A08436071697B0129EB
:104B300002D11021014301E0EF2101406171607950
:104B4000297B012902D10643667102E0FE21014062
:104B500061716A4606212B20FBF7BFFF6868207051
:104B60006868000A60706868000CA0706868000ED1
:104B7000E0706A4604213320FBF7AFFF3949087023
:104B8000A87A002800D0012000F06EF8002F0DD088
:104B90006A4601211120FBF7BBFF2078CF2101409D
:104BA00021706A4601211120FBF797FF03B0F0BD89
:104BB00030B581B005006A4601214020FBF7A8FF0F
:104BC0006C4628780128207802D10221014301E0B7
:104BD000FD2101402170A8780128207802D104210C
:104BE000014301E0FB210140217028790128207850
:104BF00002D10821014301E0F721014021706A46FA
:104C000001214020FBF769FF68792070E878607027
:104C10006878A0706A4603214320FBF75EFF1149C4
:104C2000087001B030BD30B581B004000D4D6A464A
:104C300001212D20FBF76CFF2870684600780007E3
:104C400000D5641C00A8801C2104090E017044706A
:104C500000AA921C02213120FBF73FFF287001B00F
:104C600030BD0000EC03002010B582B004006A469D
:104C700001214020FBF74CFF012C6846007802D14F
:104C80000121014301E0FE210140684601706A46AE
:104C900001214020FBF721FF0149087002B010BD3F
:104CA000EC03002001B56A4601214220FBF715FF05
:104CB0000149087001B000BDEC03002094460200D9
:104CC0000A43921808D0884206D101221206001821
:104CD000D042084600D8804262467047F2B582B0A2
:104CE00004001500FBF7A4FD02003048824200D307
:104CF0005208200000210023FBF7ECFD06000F0006
:104D00002B4A0023FBF7FFFD0400401C0021284A2A
:104D10000023FBF7DFFD801BB941009001912000CB
:104D20000021234A0023FBF7D5FD361A8F41009856
:104D30000199B94203D801D3B04200D2641C2000CB
:104D4000FF21FBF737FE029EFE2803D3FF203070C1
:104D500028700EE0811C29702000C9B2FBF72AFEE2
:104D600030702878401E28703078002801D101204A
:104D7000307003B0F0BD00B581B069464A1CFFF742
:104D8000ADFF6A4602214620FBF7A7FE09490870DD
:104D900001B000BD000001B56A4601214620FBF7C5
:104DA0009CFE0449087001B000BD000081C3C90128
:104DB00080221F48EC03002010B582B004006A4630
:104DC00001213920FBF7A4FE68460078C006C00E1A
:104DD00061010143684601706A4601213920FBF7F1
:104DE0007CFE6A4601214020FBF792FE684600786F
:104DF000BF210140E000402210400843694608708E
:104E00006A4601214020FBF768FE0249087002B0A3
:104E100010BD0000EC03002000B581B00100044883
:104E2000FEF7CAFDFFF734FCFFF7A5FF01B000BD98
:104E300000007A447047FEE700B581B06A46012160
:104E40009020FBF765FE034908706846007801B0C2
:104E500000BD0000EC03002000B581B0002819D08F
:104E60000A6802604A6842608A6882600A7B02734C
:104E70000A6902614A6942618A698261964A4262AC
:104E8000964A0262C9698162C0620068002801D046
:104E9000804701E00020C04301B000BD10B5040010
:104EA0003020205C00281AD1FE208005606301219B
:104EB0002000203000F0CBFF00280DD10121200080
:104EC000203000F0FBFF002806D100212000203018
:104ED00000F006FF002802D00020C04310BD0120D2
:104EE00030216054002010BD10B504003020205C3B
:104EF000012816D13120205C002812D02100343145
:104F0000200000F073F8002806D100212000203096
:104F100000F0E6FE002802D00020C04310BD312181
:104F2000605400203021605410BD10B582B00C00D8
:104F30006946203000F0B9FF002802D00020C043AD
:104F400003E0684600782070002002B010BD002009
:104F50008870487001220A70C87008718860604AC1
:104F6000CA6008614861704710B582B00400312002
:104F7000205C01281DD001212000203000F0B0FE6F
:104F8000002802D00020C04314E0012300220421A5
:104F90002000203000F0AFFF232069460870012375
:104FA0006A4604212000203000F0ABFF01203121AF
:104FB0006054002002B010BD10B504003120205C08
:104FC000002812D021003431200000F00FF8002812
:104FD00006D100212000203000F082FE002802D0FF
:104FE0000020C04310BD3121605410BD30B581B0E8
:104FF0000C0000256946203000F0F2FE002802D0A7
:105000000020C0431EE06846007801280AD9801EAF
:105010000DD0801E08D00E380BD010380BD01038B1
:105020000BD00DE025600CE0FE20800506E02D4849
:1050300004E02D4802E02D4800E02948206000E00F
:10504000ED43280001B030BD00B581B0020008007A
:10505000274900F05DFF01D2042112E0254900F04C
:1050600057FF01D202210CE0234900F051FF01D289
:10507000122106E0214900F04BFF01D2222100E07D
:1050800032211000203000F02BFE002801D000203B
:10509000C04301B000BD30B581B004000D0000A9CF
:1050A000891C203000F0F0FE002802D00020C04310
:1050B0000FE023206946087001236A46042120007E
:1050C000203000F01EFF0098001400F0FDFD286065
:1050D000002001B030BD0000015100083F51000820
:1050E000000048430000C841000048420000C84298
:1050F0000100803F0100C841010048420100C84250
:10510000F0B581B004000020A568012D15D11D0067
:1051100013D0009414000E0001232200B1B20098B5
:10512000007B009F7F69B847002804D1761C641C6F
:105130006D1EF1D101E00020C04301B0F0BDF0B51B
:1051400081B004000020A568012D15D11D0013D0E9
:10515000009414000E0001232200B1B20098007BDD
:10516000009F3F69B847002804D1761C641C6D1E5F
:10517000F1D101E00020C04301B0F0BDF0B583B033
:105180000400012768460770002C76D000206A468C
:1051900010702D21615C002904D12C216054200065
:1051A000FFF7CAFA02202D216054364DCA20A861AB
:1051B0005320A8612868400619D42868802101433B
:1051C0002960FCF755F9304901910600286840062E
:1051D0000DD4FCF74DF9801B01998842F6D3FF20CE
:1051E000A86104202D2160546846077045E0E868F6
:1051F00026490140E960E868616801432069084385
:10520000A1690143E960E068A1680904014369609C
:1052100028681F490140606A0843A16A0143296068
:10522000286880218843286020200290E868202197
:10523000014014D12868A021C94301432960FCF72B
:1052400017F911490191060028680299014006D119
:10525000FCF70EF9801B01998842F5D3BFE7E86897
:10526000C000C008216A0143E06908436169014345
:10527000E960FF20A8612D2027546846007803B01C
:10528000F0BD00000C280040E9030000BFFF8FFBC9
:10529000FFE0FFFFF6B583B006002C20305C01284C
:1052A00001D10220D1E001202C21705402202D21B7
:1052B0007054674CCA206062532060620025E06829
:1052C000400610D4E06880210143E160FCF7D0F88B
:1052D0000700E068400606D4FCF7CAF8C01B5D4929
:1052E0008842F6D3A0E0E068C02189000140A00D0B
:1052F000814200D180E004980399CA780028A0690F
:1053000060D1400600D4002200200B780A2B13D372
:10531000401C0A3BDFB20A2F0ED3401C0A3BDFB20F
:105320000A2F09D3401C0A3BDFB20A2F04D3401CCA
:105330000A3BDFB20A2FEBD20001034368464370F9
:1053400000204B780A2B13D3401C0A3BDFB20A2FF4
:105350000ED3401C0A3BDFB20A2F09D3401C0A3B84
:10536000DFB20A2F04D3401C0A3BDFB20A2FEBD274
:10537000000103436846037000208B7801930A2BD9
:1053800014D3401C0A3BDFB20A2F0ED3401C0A3B49
:10539000DFB20A2F09D3401C0A3BDFB20A2F04D325
:1053A000401C0A3BDFB20A2FEBD201936B465B78BD
:1053B0001F046B461B781B023B43070101983843CF
:1053C000C0B208E0400600D40022087800044B7800
:1053D0001B0203438878184393050343CA7085482A
:1053E00018402060A069844A0240A261A069CA688E
:1053F000024308691043A061E06880218843E060AF
:10540000A069800619D4E068A021C9430143E16086
:10541000FCF72EF80700E06880060ED4FCF728F8A9
:10542000C01B0C498842F6D3FF20606204202D2166
:1054300070542C203554012007E0FF2060620120C9
:105440002D2170542C203554002005B0F0BD0000F3
:1054500000280040E9030000F1B582B02C23C05CB5
:10546000012801D10220C2E002982C3001900120D5
:10547000019B18700220029B2D24185548780024A7
:10548000002A00D081E0C20603D5EF2202400A3292
:105490004A700022C8780A2813D3521C0A38C3B2B3
:1054A0000A2B0ED3521C0A38C3B20A2B09D3521C42
:1054B0000A38C3B20A2B04D3521C0A38C3B20A2BCF
:1054C000EBD21201104300234A780A2A13D35B1C43
:1054D0000A3AD5B20A2D0ED35B1C0A3AD5B20A2D70
:1054E00009D35B1C0A3AD5B20A2D04D35B1C0A3AD5
:1054F000D5B20A2DEBD21B011A4300258B780A2B5B
:1055000013D36D1C0A3BDEB20A2E0ED36D1C0A3B70
:10551000DEB20A2E09D36D1C0A3BDEB20A2E04D37A
:105520006D1C0A3BDEB20A2EEBD20006000A120600
:10553000120C024328010343DBB2134308784703EC
:105540001F432E4DCA20286253202862A8684006B7
:1055500025D4A86880210143A960FBF789FF284969
:1055600000910600A868400619D4FBF781FF801B54
:1055700000998842F6D3FF202862042002992D2248
:10558000885401980470012031E0CA7812040002A6
:1055900010438A780243087847031743D1E7194834
:1055A00038402860A86880218843A860202768695F
:1055B000384013D1A868A021C9430143A960FBF773
:1055C00057FF0F4900910600A868384006D1FBF745
:1055D0004FFF801B00998842F6D3CCE7FF2028625A
:1055E000012002992D22885401980470002003B0F4
:1055F000F0BD00007F7F7F00FFFFFBFF042800401D
:10560000E90300003FFFFF00F1B484B01000002365
:105610000027049A2C24125D012A01D1022003E103
:10562000049A2C320392012414700222049D2D2628
:10563000AA55834D2E68C0229200324002920A0081
:1056400002992602B14200D19DE0D678402100287F
:10565000E86800D082E0014000D1002600201178E7
:105660000A2913D3401C0A39CFB20A2F0ED3401C8B
:105670000A39CFB20A2F09D3401C0A39CFB20A2FF8
:1056800004D3401C0A39CFB20A2FEBD200010143E8
:1056900068468170002051780A2913D3401C0A39CA
:1056A000CFB20A2F0ED3401C0A39CFB20A2F09D32A
:1056B000401C0A39CFB20A2F04D3401C0A39CFB29A
:1056C0000A2FEBD200010143684641700020917817
:1056D0000A2913D3401C0A39CFB20A2F0ED3401C1B
:1056E0000A39CFB20A2F09D3401C0A39CFB20A2F88
:1056F00004D3401C0A39CFB20A2FEBD20001014378
:105700006846017000202421515C01910A2914D3BC
:10571000401C0A39CFB20A2F0ED3401C0A39CFB22F
:105720000A2F09D3401C0A39CFB20A2F04D3401CD8
:105730000A39CFB20A2FEBD20191694689780F045A
:1057400069464978090239436F463F780F43B105EE
:1057500039430001019F074338060EE0014000D1A4
:10576000002610780004517809020143907808431C
:10577000B10501432420105C00060843116A01436F
:1057800057690F43D670CA20A8615320A861AD3075
:10579000D16A8142E9681ED1254E0E40EE602C652B
:1057A0000299814204D19069D1690143A96302E061
:1057B0006F639069A86350686866906A0128E8681A
:1057C00002D1E106014301E01A490140E960E868BD
:1057D000882149011EE0184E0E40EE600221296525
:1057E0000299814204D19069D1690143296402E0A0
:1057F000EF63906928645068A866906A0128E86899
:1058000002D12107014301E00C490140E960E86849
:10581000882189010143E960FF20A86104982D21B6
:10582000445403980370002005B0F0BC704700009A
:10583000FFEEFFFFFFFFFFF7FFDDFFFFFFFFFFEFC3
:105840000C280040F0B581B00700094C25680126FE
:10585000354202D0A660FDF7F5FD0220054003D0D9
:10586000A060380000F067FB2D203E5401B0F0BD71
:1058700054280040F0B587B000250095614E62487D
:1058800070603068002840D1301DFBF7F9FC00281B
:105890003BD15E4C02206169014361616169014055
:1058A000019101996169014361616169014001915F
:1058B0000199C101029112210391049505900425DB
:1058C0000695534F02A93800FDF724F88020029076
:1058D000069502A93800FDF71DF8E804216A014386
:1058E0002162216A014001910199216808432060E9
:1058F00020684849014021608849301D00F01CFBA8
:10590000002802D00720C043009030680021C9431E
:10591000884201D0401C3060009807B0F0BD70B5DF
:105920000024384D2868002818D0401E286015D162
:10593000374E802149003000FDF7ACF8802130005F
:10594000FDF7A8F876480168324A0A400260281D2F
:10595000FBF7DEF9002801D00324E443200070BDEA
:1059600070B584B00024274D784E029601930092C2
:1059700001230A000100281DFBF7EEF9002815D0CD
:10598000281DFBF780FCC10701D566240DE08107C7
:1059900001D5642409E0410701D5652405E06021B3
:1059A000014001D0632400E00324E443200004B05C
:1059B00070BD70B584B00024124D644E0296019300
:1059C000009201230A000100281DFBF719FB0028A3
:1059D00015D0281DFBF757FCC10701D566240DE043
:1059E000810701D5642409E0410701D5652405E05C
:1059F0006021014001D0632400E00324E44320003F
:105A000004B070BD20030020005400403810024054
:105A100000040050FFFFDFFFF0B587B000240594BD
:105A20004B484C490860084600F0E0FC002855D17E
:105A30004948810C42690A4342614269114006911A
:105A40000699012102680A4302600268114006912A
:105A500006990225016829430160006828400690E4
:105A60000698402000900195029403940526049620
:105A7000370769463800FCF74DFF802000900195FC
:105A800002940394049669463800FCF743FF082704
:105A90000097019502940394049669462F48FCF7F9
:105AA00039FF002200211920FCF7D4F91920FCF756
:105AB000D7F9FCF763F800212FA2294B01E0400839
:105AC000121D984202D311687F1EF8D1214800F0C0
:105AD0008DFD002802D00720C0430590059807B02F
